:020000040800F2
:1060000000FC00209587000811880008138800080C
:10601000158800081788000819880008000000008B
:106020000000000000000000000000001B880008C5
:106030001D880008000000001F8800082188000853
:10604000E5870008E5870008E5870008E587000880
:10605000E5870008E5870008978800089D88000804
:10606000A3880008A9880008AF8800084D880008A8
:10607000598800086588000871880008E5870008CD
:10608000E5870008E5870008E5870008E587000840
:10609000E5870008E5870008B5880008E58700085F
:1060A000E5870008E5870008E5870008E587000820
:1060B000E5870008E5870008E5870008E587000810
:1060C000618900086D890008E5870008E5870008F8
:1060D0007D8800089588000849890008E587000840
:1060E000E5870008F588000835880008E58700087E
:1060F000E5870008E5870008E5870008E5870008D0
:10610000E5870008E587000841880008E587000862
:10611000E5870008E5870008E5870008E5870008AF
:10612000E5870008E5870008E5870008E58700089F
:08613000E5870008E58700087F
:1061400010B5054C237833B9044B13B10448AFF3B1
:1061500000800123237010BD380D002000000000D6
:10616000B4EA020808B5034B1BB103490348AFF377
:10617000008008BD000000003C0D0020B4EA0208C9
:1061800010F8012B11F8013B012A28BF9A42F7D0E1
:10619000D01A7047034613F8012B002AFBD1181AB6
:1061A00001387047000000000000000000000000FF
:1061B00001F0FF01102A2BDB10F0070F08D010F8B8
:1061C000013B013A8B422DD010F0070F42B3F6D1BC
:1061D000F0B441EA012141EA014122F007047FF0D5
:1061E00000070023F0E80256083C85EA010586EA2C
:1061F000010685FA47F5A3FA87F586FA47F6A5FA68
:1062000087F68EB9EED1F0BC01F0FF0102F0070273
:1062100032B110F8013B013A83EA010313B1F8D11E
:106220000020704701387047002D06BF35460338FF
:10623000073815F0010F07D1013015F4807F02BF38
:10624000013015F4C03F0130F0BC0138704700BF89
:1062500081F0004102E000BF83F0004330B54FEA17
:1062600041044FEA430594EA050F08BF90EA020F84
:106270001FBF54EA000C55EA020C7FEA645C7FEA17
:10628000655C00F0E2804FEA5454D4EB5555B8BF3A
:106290006D420CDD2C4480EA020281EA030382EAAB
:1062A000000083EA010180EA020281EA0303362D3D
:1062B00088BF30BD11F0004F4FEA01314FF4801C10
:1062C0004CEA113102D0404261EB410113F0004F22
:1062D0004FEA03334CEA133302D0524263EB4303D9
:1062E00094EA050F00F0A780A4F10104D5F1200E77
:1062F0000DDB02FA0EFC22FA05F2801841F10001D2
:1063000003FA0EF2801843FA05F359410EE0A5F1A5
:1063100020050EF1200E012A03FA0EFC28BF4CF0D6
:10632000020C43FA05F3C01851EBE37101F000458C
:1063300007D54FF0000EDCF1000C7EEB00006EEB99
:106340000101B1F5801F1BD3B1F5001F0CD3490823
:106350005FEA30004FEA3C0C04F101044FEA44527A
:1063600012F5800F80F09A80BCF1004F08BF5FEA01
:10637000500C50F1000041EB045141EA050130BDE1
:106380005FEA4C0C404141EB0101013C28BFB1F5F3
:10639000801FE9D291F0000F04BF01460020B1FA3E
:1063A00081F308BF2033A3F10B03B3F120020CDA11
:1063B0000C3208DD02F1140CC2F10C0201FA0CF0EF
:1063C00021FA02F10CE002F11402D8BFC2F1200C54
:1063D00001FA02F120FA0CFCDCBF41EA0C0190400A
:1063E000E41AA2BF01EB0451294330BD6FEA040453
:1063F0001F3C1CDA0C340EDC04F11404C4F120023E
:1064000020FA04F001FA02F340EA030021FA04F34F
:1064100045EA030130BDC4F10C04C4F1200220FAA6
:1064200002F001FA04F340EA0300294630BD21FAE4
:1064300004F0294630BD94F0000F83F4801306BFAA
:1064400081F480110134013D4EE77FEA645C18BF9E
:106450007FEA655C29D094EA050F08BF90EA020F35
:1064600005D054EA000C04BF1946104630BD91EA2D
:10647000030F1EBF0021002030BD5FEA545C05D130
:106480004000494128BF41F0004130BD14F580046F
:106490003CBF01F5801130BD01F0004545F0FE41E3
:1064A00041F470014FF0000030BD7FEA645C1ABF18
:1064B000194610467FEA655C1CBF0B46024650EA4F
:1064C000013406BF52EA033591EA030F41F400217B
:1064D00030BD00BF90F0000F04BF0021704730B501
:1064E0004FF4806404F132044FF000054FF00001D6
:1064F00050E700BF90F0000F04BF0021704730B597
:106500004FF4806404F1320410F0004548BF40426B
:106510004FF000013EE700BF42004FEAE2014FEAC0
:1065200031014FEA02701FBF12F07F4393F07F4F9B
:1065300081F06051704732F07F4208BF704793F09E
:106540007F4F04BF41F40021704730B54FF46074B1
:1065500001F0004521F000411CE700BF50EA0102B4
:1065600008BF704730B54FF000050AE050EA01025D
:1065700008BF704730B511F0004502D5404261EBCD
:1065800041014FF4806404F132045FEA915C3FF40E
:10659000D8AE4FF003025FEADC0C18BF03325FEAAB
:1065A000DC0C18BF033202EBDC02C2F1200300FA5C
:1065B00003FC20FA02F001FA03FE40EA0E0021FA81
:1065C00002F11444BDE600BF70B54FF0FF0C4CF46F
:1065D000E06C1CEA11541DBF1CEA135594EA0C0F21
:1065E00095EA0C0F00F0DEF82C4481EA030621EA5C
:1065F0004C5123EA4C5350EA013518BF52EA033597
:1066000041F4801143F4801338D0A0FB02CE4FF048
:106610000005E1FB02E506F00042E0FB03E54FF078
:106620000006E1FB03569CF0000F18BF4EF0010E70
:10663000A4F1FF04B6F5007F64F5407404D25FEA6C
:106640004E0E6D4146EB060642EAC62141EA55511F
:106650004FEAC52040EA5E504FEACE2EB4F1FD0C61
:1066600088BFBCF5E06F1ED8BEF1004F08BF5FEADF
:10667000500E50F1000041EB045170BD06F0004691
:1066800046EA010140EA020081EA0301B4EB5C043E
:10669000C2BFD4EB0C0541EA045170BD41F4801136
:1066A0004FF0000E013C00F3AB8014F1360FDEBF5B
:1066B000002001F0004170BDC4F10004203C35DA37
:1066C0000C341BDC04F11404C4F1200500FA05F3BA
:1066D00020FA04F001FA05F240EA020001F000425B
:1066E00021F0004110EBD37021FA04F642EB0601D1
:1066F0005EEA430E08BF20EAD37070BDC4F10C04FB
:10670000C4F1200500FA04F320FA05F001FA04F2BE
:1067100040EA020001F0004110EBD37041F10001AA
:106720005EEA430E08BF20EAD37070BDC4F12005B5
:1067300000FA05F24EEA020E20FA04F301FA05F21D
:1067400043EA020321FA04F001F0004121FA04F2C5
:1067500020EA020000EBD3705EEA430E08BF20EA95
:10676000D37070BD94F0000F0FD101F000464000CF
:1067700041EB010111F4801F08BF013CF7D041EA51
:10678000060195F0000F18BF704703F00046520055
:1067900043EB030313F4801F08BF013DF7D043EA26
:1067A0000603704794EA0C0F0CEA135518BF95EADC
:1067B0000C0F0CD050EA410618BF52EA4306D1D163
:1067C00081EA030101F000414FF0000070BD50EA82
:1067D000410606BF1046194652EA430619D094EA0C
:1067E0000C0F02D150EA013613D195EA0C0F05D1F6
:1067F00052EA03361CBF104619460AD181EA03014A
:1068000001F0004141F0FE4141F470014FF0000001
:1068100070BD41F0FE4141F4780170BD70B54FF09C
:10682000FF0C4CF4E06C1CEA11541DBF1CEA13551C
:1068300094EA0C0F95EA0C0F00F0A7F8A4EB0504FE
:1068400081EA030E52EA03354FEA013100F08880F5
:106850004FEA03334FF0805545EA131343EA1263BE
:106860004FEA022245EA111545EA10654FEA002673
:106870000EF000419D4208BF964244F1FD0404F52C
:10688000407402D25B084FEA3202B61A65EB030588
:106890005B084FEA32024FF480104FF4002CB6EB45
:1068A000020E75EB030E22BFB61A754640EA0C00C5
:1068B0005B084FEA3202B6EB020E75EB030E22BF05
:1068C000B61A754640EA5C005B084FEA3202B6EB46
:1068D000020E75EB030E22BFB61A754640EA9C0005
:1068E0005B084FEA3202B6EB020E75EB030E22BFD5
:1068F000B61A754640EADC0055EA060E18D04FEA93
:10690000051545EA16754FEA06164FEAC30343EA32
:1069100052734FEAC2025FEA1C1CC0D111F4801FFF
:106920000BD141EA00014FF000004FF0004CB6E7F8
:1069300011F4801F04BF01430020B4F1FD0C88BF97
:10694000BCF5E06F3FF6AFAEB5EB030C04BFB6EBA2
:10695000020C5FEA500C50F1000041EB045170BD95
:106960000EF0004E4EEA113114EB5C04C2BFD4EBC2
:106970000C0541EA045170BD41F480114FF0000E46
:10698000013C90E645EA060E8DE60CEA135594EAC2
:106990000C0F08BF95EA0C0F3FF43BAF94EA0C0FC5
:1069A0000AD150EA01347FF434AF95EA0C0F7FF43A
:1069B00025AF104619462CE795EA0C0F06D152EA8E
:1069C00003353FF4FDAE1046194622E750EA410672
:1069D00018BF52EA43067FF4C5AE50EA41047FF483
:1069E0000DAF52EA43057FF4EBAE12E74FF0FF3CE8
:1069F00006E000BF4FF0010C02E000BF4FF0010CB9
:106A00004DF804CD4FEA410C7FEA6C5C4FEA430C31
:106A100018BF7FEA6C5C1BD001B050EA410C0CBF80
:106A200052EA430C91EA030F02BF90EA020F0020E2
:106A3000704710F1000F91EA030F58BF994208BF49
:106A400090422CBFD8176FEAE37040F00100704706
:106A50004FEA410C7FEA6C5C02D150EA013C07D15D
:106A60004FEA430C7FEA6C5CD6D152EA033CD3D0A8
:106A70005DF8040B704700BF8446104662468C46A2
:106A80001946634600E000BF01B5FFF7B7FF0028D5
:106A900048BF10F1000F01BD4DF808EDFFF7F4FFFE
:106AA0000CBF012000205DF808FB00BF4DF808ED89
:106AB000FFF7EAFF34BF012000205DF808FB00BFAC
:106AC0004DF808EDFFF7E0FF94BF012000205DF8CE
:106AD00008FB00BF4DF808EDFFF7CEFF94BF012083
:106AE00000205DF808FB00BF4DF808EDFFF7C4FF7C
:106AF00034BF012000205DF808FB00BF4FEA410CC5
:106B00007FEA6C5C02D150EA013C0AD14FEA430CA7
:106B10007FEA6C5C02D152EA033C02D14FF00000E4
:106B200070474FF0010070474FEA410212F5001222
:106B300015D211D56FF47873B3EB625212D94FEAC4
:106B4000C12343F0004343EA505311F0004F23FAAE
:106B500002F018BF404270474FF00000704750EA03
:106B6000013005D111F0004008BF6FF000407047C0
:106B70004FF00000704700BF4A0011D212F500121A
:106B800011D20DD56FF47873B3EB62520ED44FEA85
:106B9000C12343F0004343EA505323FA02F0704705
:106BA0004FF00000704750EA013002D14FF0FF3043
:106BB00070474FF00000704780F0004002E000BFD7
:106BC00081F0004142001FBF5FEA410392EA030FD8
:106BD0007FEA226C7FEA236C6AD04FEA1262D2EB22
:106BE0001363C1BFD218414048404140B8BF5B4227
:106BF000192B88BF704710F0004F40F4000020F0C0
:106C00007F4018BF404211F0004F41F4000121F0D5
:106C10007F4118BF494292EA030F3FD0A2F101021F
:106C200041FA03FC10EB0C00C3F1200301FA03F15D
:106C300000F0004302D5494260EB4000B0F5000F80
:106C400013D3B0F1807F06D340084FEA310102F13F
:106C50000102FE2A51D2B1F1004F40EBC25008BFF1
:106C600020F0010040EA03007047490040EB0000BB
:106C7000013A28BFB0F5000FEDD2B0FA80FCACF1BC
:106C8000080CB2EB0C0200FA0CF0AABF00EBC250E9
:106C900052421843BCBFD0401843704792F0000FD7
:106CA00081F4000106BF80F400000132013BB5E72A
:106CB0004FEA41037FEA226C18BF7FEA236C21D0A0
:106CC00092EA030F04D092F0000F08BF0846704705
:106CD00090EA010F1CBF0020704712F07F4F04D1D3
:106CE000400028BF40F00040704712F100723CBFE6
:106CF00000F50000704700F0004343F0FE4040F410
:106D0000000070477FEA226216BF08467FEA2363CD
:106D10000146420206BF5FEA412390EA010F40F4B8
:106D2000800070474FF0000304E000BF10F0004304
:106D300048BF40425FEA000C08BF704743F09643EB
:106D400001464FF000001CE050EA010208BF704706
:106D50004FF000030AE000BF50EA010208BF70478D
:106D600011F0004302D5404261EB41015FEA010CA2
:106D700002BF84460146002043F0B64308BFA3F19A
:106D80008053A3F50003BCFA8CF2083AA3EBC2537C
:106D900010DB01FA02FC634400FA02FCC2F120029B
:106DA000BCF1004F20FA02F243EB020008BF20F0D2
:106DB0000100704702F1200201FA02FCC2F1200238
:106DC00050EA4C0021FA02F243EB020008BF20EA2D
:106DD000DC7070474FF0FF0C1CEAD0521EBF1CEA5B
:106DE000D15392EA0C0F93EA0C0F6FD01A4480EA49
:106DF000010C400218BF5FEA41211ED04FF0006332
:106E000043EA501043EA5111A0FB01310CF000405D
:106E1000B1F5000F3EBF490041EAD3715B0040EA83
:106E2000010062F17F02FD2A1DD8B3F1004F40EB53
:106E3000C25008BF20F00100704790F0000F0CF026
:106E4000004C08BF49024CEA502040EA51207F3AEA
:106E5000C2BFD2F1FF0340EAC250704740F40000C5
:106E60004FF00003013A5DDC12F1190FDCBF00F0B6
:106E700000407047C2F10002410021FA02F1C2F164
:106E8000200200FA02FC5FEA310040F1000053EA00
:106E90004C0308BF20EADC70704792F0000F00F04E
:106EA000004C02BF400010F4000F013AF9D040EA54
:106EB0000C0093F0000F01F0004C02BF490011F4E8
:106EC000000F013BF9D041EA0C018FE70CEAD153E6
:106ED00092EA0C0F18BF93EA0C0F0AD030F0004C66
:106EE00018BF31F0004CD8D180EA010000F000401A
:106EF000704790F0000F17BF90F0004F084691F0D8
:106F0000000F91F0004F14D092EA0C0F01D1420211
:106F10000FD193EA0C0F03D14B0218BF084608D1DA
:106F200080EA010000F0004040F0FE4040F4000024
:106F3000704740F0FE4040F4400070474FF0FF0CB7
:106F40001CEAD0521EBF1CEAD15392EA0C0F93EAFE
:106F50000C0F69D0A2EB030280EA010C49024FEA50
:106F6000402037D04FF0805343EA111143EA101309
:106F70000CF000408B4238BF5B0042F17D024FF4C1
:106F8000000C8B4224BF5B1A40EA0C00B3EB510F9C
:106F900024BFA3EB510340EA5C00B3EB910F24BF85
:106FA000A3EB910340EA9C00B3EBD10F24BFA3EB0A
:106FB000D10340EADC001B0118BF5FEA1C1CE0D1D2
:106FC000FD2A3FF650AF8B4240EBC25008BF20F085
:106FD000010070470CF0004C4CEA50207F32C2BFD9
:106FE000D2F1FF0340EAC250704740F400004FF076
:106FF0000003013A37E792F0000F00F0004C02BFA7
:10700000400010F4000F013AF9D040EA0C0093F070
:10701000000F01F0004C02BF490011F4000F013BCA
:10702000F9D041EA0C0195E70CEAD15392EA0C0F32
:1070300008D142027FF47DAF93EA0C0F7FF470AF6A
:10704000084676E793EA0C0F04D14B023FF44CAFAD
:1070500008466EE730F0004C18BF31F0004CCAD142
:1070600030F000427FF45CAF31F000437FF43CAF7E
:107070005FE700BF4FF0FF3C06E000BF4FF0010CA0
:1070800002E000BF4FF0010C4DF804CD4FEA400282
:107090004FEA41037FEA226C18BF7FEA236C11D0CC
:1070A00001B052EA530C18BF90EA010F58BFB2EB7F
:1070B000030088BFC81738BF6FEAE17018BF40F0FF
:1070C000010070477FEA226C02D15FEA402C05D1B3
:1070D0007FEA236CE4D15FEA412CE1D05DF8040B38
:1070E000704700BF844608466146FFE70FB5FFF7CB
:1070F000C9FF002848BF10F1000F0FBD4DF808ED83
:10710000FFF7F4FF0CBF012000205DF808FB00BF73
:107110004DF808EDFFF7EAFF34BF012000205DF8CD
:1071200008FB00BF4DF808EDFFF7E0FF94BF01201A
:1071300000205DF808FB00BF4DF808EDFFF7D2FF17
:1071400094BF012000205DF808FB00BF4DF808ED5A
:10715000FFF7C8FF34BF012000205DF808FB00BF27
:1071600053B94AB9002908BF00281CBF4FF0FF31AE
:107170004FF0FF3001F0F2B8ADF1080C6DE904CE2C
:1071800000F01AF8DDF804E0DDE9022304B07047EE
:10719000430803F05533C01A830803F0333300F07B
:1071A0003330184400EB101000F00F3000EB0020DB
:1071B00000EB0040000E70472DE9F047089E0D4699
:1071C00004468846002B4DD18A42944668D9B2FACB
:1071D00082F252B101FA02F3C2F1200120FA01F168
:1071E0000CFA02FC41EA030894404FEA1C45210CCA
:1071F000B8FBF5FE1FFA8CF705FB1E8341EA03433B
:107200000EFB07F199420BD91CEB03030EF1FF3083
:1072100080F01E81994240F21B81AEF1020E634460
:107220005B1AA4B2B3FBF5F005FB103344EA034448
:1072300000FB07F7A7420AD91CEB040400F1FF3357
:1072400080F00881A74240F2058164440238E41BC3
:1072500040EA0E4000211EB1D4400023C6E900439D
:10726000BDE8F0878B4208D9002E00F0EE800021A7
:10727000C6E900050846BDE8F087B3FA83F10029A6
:107280004AD1AB4202D3824200F2F980841A65EB04
:10729000030301209846002EE2D0C6E90048DFE74C
:1072A00002B9FFDEB2FA82F2002A40F09180A1EB2F
:1072B0000C054FEA1C471FFA8CFE0121B5FBF7F3C2
:1072C00007FB1350250C45EA00450EFB03F0A842CE
:1072D00008D91CEB050503F1FF3802D2A84200F2E1
:1072E000CB8043462D1AA4B2B5FBF7F007FB10552F
:1072F00044EA05440EFB00FEA64508D91CEB040435
:1073000000F1FF3502D2A64500F2BB802846A4EB6F
:107310000E0440EA03409EE7C1F120078B4022FAA9
:1073200007FC4CEA030C20FA07F405FA01F31C43AE
:10733000FD404FEA1C4900FA01F3B5FBF9F8200CB7
:107340001FFA8CFE09FB185540EA054508FB0EF0B4
:10735000A84202FA01F20BD91CEB050508F1FF3A2D
:1073600080F08880A84240F28580A8F10208654438
:107370002D1AA4B2B5FBF9F009FB105544EA0545F6
:1073800000FB0EFEAE4508D91CEB050500F1FF34ED
:107390006CD2AE456AD90238654440EA0840A0FB89
:1073A0000294A5EB0E05A542C846A64656D353D077
:1073B0005EB1B3EB080265EB0E0505FA07F722FA9A
:1073C00001F3CD401F43C6E900750021BDE8F087F9
:1073D000C2F1200320FA03F10CFA02FC25FA03F3B0
:1073E00095400D434FEA1C471FFA8CFEB3FBF7F1A3
:1073F00007FB11302B0C43EA004301FB0EF09842CF
:1074000004FA02F408D91CEB030301F1FF382FD270
:1074100098422DD9023963441B1AADB2B3FBF7F081
:1074200007FB103345EA034500FB0EF3AB4208D9D6
:107430001CEB050500F1FF3816D2AB4214D9023817
:107440006544ED1A40EA014138E73146304607E726
:107450008646E5E61846FAE64B45A9D2B9EB02089E
:1074600064EB0C0E0138A3E74046EAE7204694E7B8
:107470004146D1E7D0467BE7023B654432E7084608
:1074800009E76444023842E703685A004CBF43F0FE
:10749000004323F000431844704700BF2DE9F84330
:1074A00029B34F1E044615463E464FF0000808EB30
:1074B000060101EBD171491004EBC1094846FFF701
:1074C000E3FF0346C80008308F42204409D0AB4296
:1074D00009D8FFF7D9FF0138A8420AD201F1010803
:1074E000E5E7AB4205D9884501D04E1EDFE74FF0F6
:1074F00000094846BDE8F883012807D0022807D0D4
:10750000044B00280CBF1846002070470248704703
:1075100002487047D17B0008D57B0008D97B000862
:1075200030B5234B83B004468D1E3BB301A92846DA
:10753000AFF30080E8B101992A46FFF7AFFF01469B
:10754000B8B1FFF7A1FF4B68A064012B2CD0002B32
:1075500001F1040024DBFFF797FF0023C4E91303C4
:107560000368002B11DBFFF78FFF2061002003B0C1
:1075700030BD00230920236103B030BD0D4B0E49FF
:10758000C91AC91018460191D6E7C3F30360FFF783
:10759000B3FF0028206114BF0020092003B030BDD4
:1075A0000123C4E91303DBE7002323610520DEE7A1
:1075B0000000000080220308D02303080368DA07D4
:1075C00010B5044606D49B0700F1480009D500F029
:1075D0005BFC2368590709D51A070ED5DB0613D5BE
:1075E00010BD00F049FC23685907F5D404F1D00020
:1075F00000F052FC23681A07F0D404F5A87000F0DC
:1076000053FC2368DB06EBD404F5E870BDE81040BA
:1076100000F08EBC092070470346006800B1184492
:10762000704700BF704700BF70B504460E46316C0E
:107630002046FFF775FF054688B9326C6261236901
:1076400032462146012098470828F0D0072806D165
:107650002846316CFFF7E6FF301D00F001FC24F0F6
:10766000F1FE00BF2DE9F0470D1DD0F80C80D0F8D9
:107670001890074614460FCDADF5727D0DF10C0C38
:10768000ACE80F000FCDACE80F000FCDACE80F0059
:1076900095E80F0002AE4FF0000E8CE80F00C6F820
:1076A00000E020E0336C7B614FF4F07231467AA841
:1076B00022F09AF93B697AAA394650469847889B46
:1076C00073642146CDE9006905463B463A460120F0
:1076D000C0470446E0B94FF4F0727AA9304622F070
:1076E00083F9082D1AD1316C3846FFF719FF093498
:1076F0005FFA84FA05460028D4D0B36B73643A4627
:10770000CDE900693B464AF010010120C04700B1B5
:10771000092528460DF5727DBDE8F087072DF7D1C4
:107720002046316CFFF77EFF03A800F099FB00BFF5
:10773000406C7047F0B5CB6B0B6401F1040C0E4646
:107740000546BCE80F00F9B001AC0FC4BCE80F005F
:107750000FC4BCE80F000FC49CE80F004FF0FF37C8
:1077600084E80F00009706E02B696A46294698478F
:107770000828044608D110992846FFF7D1FE0028B2
:10778000F2D0092079B0F0BD6846FFF717FF062C4C
:10779000F7D131462846FFF747FF00BFC160D96BDC
:1077A00082611964002219465CE700BF70B5C668A3
:1077B00043690B64AEB903690A4604460D460146A7
:1077C00002209847072805D008280FD129462046CF
:1077D000FFF72AFF3046296CFFF724FF281D00F031
:1077E0003FFB0122FFF73EFF24F02CFE24F02AFE8F
:1077F000C2681AB1CA6B0A64002233E79AE700BF75
:10780000704700BF836801460BB1012018477047DD
:10781000012912D009D873B90F2A0CD800EB8202C3
:1078200018465368009A136070470339012994BFC2
:10783000012002207047022070470846704700BFB1
:1078400000B585B00A46002303A900911946FFF749
:10785000DFFF039805B05DF804FB00BF012912D0DB
:1078600009D873B90F2A0CD800EB8200009A12686D
:107870004260184670470339012994BF0120022055
:107880007047022070470846704700BF10B584B0AB
:10789000002303AC039200940A461946FFF7DEFF6B
:1078A00004B010BD70B5D36B136402F1040C05462F
:1078B0000C46BCE80F00ADF50E7D0DF15C0EAEE898
:1078C0000F00BCE80F00AEE80F00BCE80F00AEE808
:1078D0000F009CE80F004FF0FF368EE80F00169661
:1078E00010E0FFF7D3FF214616A8A847034616AAC3
:1078F0006946082083B9049B9847052806460CD0A2
:10790000092809D026996846FFF70AFE03466A4609
:107910000C2116A8002BE4D0092616A8FFF74EFE6E
:1079200030460DF50E7D70BD2DE9F04FCC6C89B061
:107930001E4654F8043B06940D46174600F0030813
:10794000002E79D01A0C1B0405938DF81D200223FC
:10795000D2B204EB82048DF81C302B6DB8F1020F0B
:1079600008BFAC6B13F001030CD005A9384600F03A
:1079700079FB18B9082009B0BDE8F08F092009B0DB
:10798000BDE8F08FD4F800A0BAF1000FEDD001935C
:1079900000F008030293022E4AD0B4F800A0B4F815
:1079A00002900434AB6C29F0010B0F2138469B4444
:1079B000FFF746FF834539D82AF001039B448345EE
:1079C00094BF002001204FEA490303F002030AF0AC
:1079D000010A43EA0A03012B49D0022B32D0002BC3
:1079E000CCD1B8F1000F02D0002840F0CD80043493
:1079F000D4F800A0BAF1000FCDD105A9384600F0A7
:107A000031FB0028BAD1019B002BB3D00F2138469F
:107A1000FFF716FF0E2102463846FFF737FF3846BC
:107A20006A4A0F21FFF732FF0720A8E70020CAE7C4
:107A3000D4F804900834B5E71B0205930323ADF88E
:107A40001C308AE7236823F0004BB8F1000F45D1C2
:107A500028B1029A002A5CD0BBF1000F74D0002B31
:107A600000DA04340BF1010B04EB8B04C0E7B8F12E
:107A7000000F19D1B0B163682268991C4FEAD27225
:107A80003FF47CAF05F158010133049100F0908080
:107A9000201DFFF7C1FD04AB0146284626F0ACFBD4
:107AA00000285BD10834A3E70D213846D5F8209093
:107AB000FFF7C6FE8145F5D1AB6A9C42F2D1204664
:107AC000FFF7E2FC0F2102463846FFF7DFFE38469B
:107AD0002A460021FFF7DAFE072050E70D2138463D
:107AE000D5F82090FFF7ACFE814501D02368B6E7BA
:107AF000AB6A9C42FAD104230022C5E90B23E318A8
:107B0000C5F828B06B632368002B59DB0123019370
:107B1000A8E705F15803CDF80C8004F1040AB0463B
:107B200091461E460EE050460496FFF775FD002272
:107B3000014604AB284609F101090AF1040A26F0BE
:107B40005BFBE0B9D945EED10D213846FFF778FE51
:107B5000049BAC62C5E90803062010E781460D21AD
:107B60003846FFF76DFEB9F1020F286225D12B468A
:107B7000049A43F82C2F6B62AC620620FFE646465F
:107B80002368DDF80C806AE72046FFF77DFC0434AB
:107B90000246AC632846144626F08CFB00283FF4CE
:107BA000EDAE384622460F21FFF770FE0720E6E6CD
:107BB0000D213846FFF744FE2862049B6B62DBE729
:107BC0000BF1010004EB80007AE700BFF5E9020841
:107BD0000023A9E60123A7E60223A5E62DE9F04349
:107BE0000646C3B015461C46042900F2BF80DFE8F4
:107BF00001F09E57BD2D0300002C40F0B780102AE5
:107C000000F2B4800368D80600F1F98020AF38464E
:107C100000F098F9B46B394600234FF0010C0CFAD0
:107C200003F22A42204603F1010303D050F8042B4B
:107C30000A600446042B01F10401F0D13846B46314
:107C400000F076F9002043B0BDE8F083032C40F04B
:107C50008D8094B204EB1243102B4FEA124500F2D0
:107C6000858003681F0700F1D28020AF384600F0FE
:107C70003DF9B26B07EBC50154B10B46D01A01EBCD
:107C8000C401E4001D5843F8045B8B42FAD122443E
:107C90003846B26300F008F9002043B0BDE8F08335
:107CA000012C4FEA124895B25CD0052C5ED108EB4E
:107CB0000509B9F1200F59D8B8F10F0F79D9A946A4
:107CC000002D40F08A80B36B6DB320AF4FF00009F8
:107CD00007EBC807043F03EBC50553F8041B47F83F
:107CE000041FAB42F9D1B9F1000F0FD06F464146E6
:107CF000102938BF102107EBC101843903EBC905F6
:107D000053F8040B41F8040FAB42F9D1012C00F0F9
:107D10008680B8F10F0FB56347D9B9F1000F02D0D3
:107D2000684600F0B9F8002043B0BDE8F083ECB934
:107D3000806B23461FFA82FC0124371D04FA03F2EC
:107D400012EA0C0F014604D051F8042B47F8232007
:107D500008460133102BF1D115F40055E3D1B0637F
:107D6000284604E008EB0503102B03D9022043B09A
:107D7000BDE8F083B8F10F0FF8D83368DA0706D5FD
:107D8000304623F0030340F8483B00F079F820AF79
:107D9000384600F075F8B36B002D97D11D460435B9
:107DA000B563384600F068F8BDE720A800F06CF82D
:107DB000B3E7B9F1100F40D9A9F110093368D90719
:107DC00008D523F00103304643F0020340F8483B56
:107DD00000F05EF8B9F1000F32D033685A0720D4B2
:107DE000B8F10F0F25D96F463846C8F1100500F0DD
:107DF00057F8002DB36B7FF77AAF20AF68E723F019
:107E00001003336006F5E87000F09CF8FEE623F0FE
:107E10000803036000F5A87000F068F825E720AFBC
:107E2000BDE7304623F0040340F8D03B00F038F8BB
:107E3000D6E720A800F02CF8D5E74FF00009BDE701
:107E4000B8F10F0F3FF63FAF20AF384600F020F8F3
:107E5000B36B002D7FF43AAF384600F015F862E7B7
:107E600000F1340191E838009C46A6464CF8045DC8
:107E700090E8FF0FE54600BD90EC210B704700BF76
:107E800080EC210B704700BF90EC200B704700BFC7
:107E900080EC200B704700BFD0EC200B704700BF78
:107EA000C0EC200B704700BFF0EC0201F0EC0211B7
:107EB000F0EC0221F0EC0231F0EC0241F0EC025166
:107EC000F0EC0261F0EC0271F0EC0281F0EC029156
:107ED000F0EC02A1F0EC02B1F0EC02C1F0EC02D146
:107EE000F0EC02E1F0EC02F1704700BFE0EC0201BF
:107EF000E0EC0211E0EC0221E0EC0231E0EC0241A6
:107F0000E0EC0251E0EC0261E0EC0271E0EC028195
:107F1000E0EC0291E0EC02A1E0EC02B1E0EC02C185
:107F2000E0EC02D1E0EC02E1E0EC02F1704700BFCE
:107F3000B0FC0181B0FC0191B0FC01A1B0FC01B129
:107F4000704700BFA0FC0181A0FC0191A0FC01A131
:107F5000A0FC01B1704700BFEC4600B52DE9005010
:107F60002DE9FF1F4FF000032DE90C0001A9FFF7D9
:107F7000E1FBDDF840E012B0704700BFEC4600B511
:107F80002DE900502DE9FF1F4FF000032DE90C00F3
:107F900001A9FFF70BFCDDF840E012B0704700BF0D
:107FA000EC4600B52DE900502DE9FF1F4FF000030E
:107FB0002DE90C0001A9FFF71BFCDDF840E012B031
:107FC000704700BFEC4600B52DE900502DE9FF1FBA
:107FD0004FF000032DE90C0001ABFFF7DFFBDDF8EC
:107FE00040E012B0704700BFEC4600B52DE90050EC
:107FF0002DE9FF1F4FF000032DE90C0001AAFFF748
:1080000051FCDDF840E012B0704700BF027A034631
:108010007AB9427AA2B14168013A10B44272086852
:1080200003220C1D1A7202025C60000E10BC1A6062
:1080300070470068013A1A7202021A60000E704717
:10804000B020704700B585B0002303AA00921946FE
:108050000C22FFF7DDFB039805B05DF804FB00BFC1
:10806000F0E700BF2DE9F043054685B00E464FF01E
:1080700000083046FFF7CAFFB028044600F0BA8077
:10808000070620D500F0F003802B4DD0902B36D082
:10809000A02B60D0B02B74D0C02B00F08B8000F0F0
:1080A000F803D02B0BD100F007020132052342F474
:1080B000002201212846FFF791FD0028D9D0092090
:1080C00005B0BDE8F0838300DBB21F1D0DF10C0984
:1080D00000231946CDF800900D222846FFF798FBA3
:1080E000039BCDF8009060064CBFDF1BFF180023F8
:1080F0000D22194628460397FFF7B0FBB9E700F0B9
:108100000D030D2BDBD003AF002300F00F02194647
:1081100000972846FFF77CFB002300970D221946A5
:108120002846FFF79BFBA4E73046FFF76FFF2402CA
:108130002043B0F5004FC2D004010023A2B219467B
:108140002846FFF74BFD0028B9D114F4004F18BFA3
:108150004FF001088DE7C24302F007034FF47F623E
:108160001A41010702F47F624FF0000348BF42F456
:10817000804219462846FFF731FD00283FF479AFC9
:108180009DE7B1283BD0B22800F09380B32841D0BE
:1081900000F0FC03B42B92D000F00702013201235F
:1081A00042F4002219462846FFF718FD00283FF444
:1081B00060AF84E7C6284AD0C72854D000F0F8033F
:1081C000C02B63D0C82868D0C9287FF478AF304668
:1081D000FFF71CFF020300F00F0002F470220130D1
:1081E0000243012105232846FFF7F8FC00283FF44D
:1081F00040AF64E7B8F1000F18D0002060E73046C8
:10820000FFF704FF024600283FF459AF10F0F003D7
:10821000C8D054E73046FFF7F9FE020300F00F0321
:10822000013302F470221A430123BBE703AC434637
:108230000E22414600942846FFF7EAFA009443468E
:108240000F2241462846FFF709FB404638E73046F3
:10825000FFF7DCFE020300F00F03013302F470228B
:108260001A4303239EE73046FFF7D0FE024600285C
:108270003FF425AF10F0F0037FF421AF042128462E
:10828000FFF7ACFC00283FF4F4AE18E700F00F0253
:108290000132032342F4202284E73046FFF7B6FE82
:1082A00000F0F00200F00F031032013343EA023213
:1082B00097E700230DF10C090D221946CDF8009027
:1082C0002846FFF7A5FA3046FFF7A0FE02064FF05A
:1082D00002040CD5039B00F07F00A04018440390DB
:1082E0003046FFF793FE030604F10704F2D4039B24
:1082F000CDF8009000F07F02A24003F501731A440C
:108300000023039219460D222846FFF7A7FAB0E68C
:1083100010B5C26C536884B04FF0030C08321C02D5
:1083200008461B0E01A9019402928DF80CC08DF82D
:108330000D30FFF797FE04B010BD00BF08B5FFF782
:108340008FFE806C08BD00BF08B5FFF789FEC06CCA
:10835000C379023300EB830008BD00BF704700BF44
:1083600010B59AB04822002108A821F065FB182218
:10837000002102A821F060FB0DF06EFD4FF0B0422D
:108380000024D2F8903023F01803C2F89030D2F8CD
:10839000003423F4C06343F40073C2F80034D2F80D
:1083A0000034119403F4C0630193019B26230893C6
:1083B00081230B93012310934FF480730C9340237C
:1083C0000D9308A8B023CDE912340DF007F908B1D8
:1083D00000F05EFB4F23022102A8CDE90234CDE973
:1083E0000444CDE906440DF09BFB08B100F050FBBE
:1083F0001AB010BD13B50378082B32D8DFE803F0AC
:10840000189FA631AFAF0531B500047920460AF0B8
:10841000F5FA012802D1204605F076F9204604F04D
:1084200043FC0021204602B0BDE810400AF0EEBA3D
:1084300000200AF0E3FA022821D101200AF0DEFA36
:10844000022804D001200BF043FB002833DC02207B
:108450000AF0D4FA022804D002200BF039FB0028DD
:108460004ADC02B010BD012201A900200BF016FA6F
:1084700000200AF0C3FA044638B1012815D00020C4
:108480000BF026FB0028EEDCD7E70BF01BFB20B936
:108490009DF8041004F074FBF1E70128EFD19DF87A
:1084A000041020460BF068FAE9E79DF8041000205C
:1084B00005F046F8E3E7012201A910460BF0EEF9BA
:1084C00001200AF09BFA30B10128BBD19DF80410BD
:1084D00005F036F8B6E701200BF0F4FA28B99DF85C
:1084E0000410012004F04CFBACE70128AAD19DF850
:1084F00004100BF041FAA5E7012201A902200BF0BC
:10850000CDF902200AF07AFA38B10128A4D19DF8F9
:108510000410022005F014F89EE702200BF0D2FAB6
:1085200028B99DF80410022004F02AFB94E70128E2
:1085300092D19DF8041002200BF01EFA8CE712F085
:1085400033FF02B0BDE8104002F0DCBE0A4B1B68EE
:10855000002B86D0406802B0BDE810401847406844
:1085600002B0BDE810400BF04BBB406802B0BDE864
:1085700010400BF011B800BF2C24002030B52E4B5A
:108580002E4A9A6085B00BF0CBFBFFF7E9FE4FF067
:10859000B0430B209A6C42F004029A649A6C02F089
:1085A00004020392039A9A6C42F001029A649B6C53
:1085B000002203F0010311460293029B0DF0C0FB61
:1085C0000B200DF0EFFB0BF00FFB0AF0EBF90AF0BC
:1085D00085FA002401460546234603220120CDE901
:1085E00000440BF095F82346032229460220CDE9EA
:1085F00000440BF08DF801F0B7FC02F0ABFEE5B2E1
:1086000028460AF0FBF910B9284604F04DFB013466
:10861000032CF4D10024E0B20AF0F0F9012802D1D1
:10862000204605F04DF80134032CF4D105B0BDE827
:1086300030400BF0C1BA00BF00ED00E00060000860
:10864000F7B5FFF79BFF4FF0B0432E4EDA6C2E4C80
:1086500042F00202DA64DB6C03F002030193019B37
:1086600004F07AFB294B341B1427474300251C4494
:10867000BD4223D31EF076FE00F064F898B3244880
:1086800001F0D7F9234B24481A68244B196801F0EC
:10869000D0F923480BF0C6F801F02BFD012824D0B7
:1086A000022824D010B91F480BF0BCF81E4C0BF068
:1086B00091FA2378EBB91EF057FEF8E76A460421D9
:1086C00060190AF0DFFE69463246042312F801CB36
:1086D00011F8010B844518BF02F8010C013BF5D1DC
:1086E00004350436C4E71148CAE71148DCE71148ED
:1086F000DAE70AF0CBF90028D9D000200AF0C6FF4B
:10870000D5E700BF2401002000000020E823030873
:10871000FAEC0208200D002010ED0208140D0020D4
:1087200020ED020834ED0208540D002005ED02088A
:1087300040ED02084BED020800F090BD00F093BD43
:108740007047000070B586B01022002102A821F009
:1087500073F94FF0B0430E4DDA6C42F00202DA6466
:10876000DB6C03F002034FF48056009301A9284606
:10877000009B01960DF0AAFD314628460DF0CCFE77
:108780003146044628460DF053FE204606B070BD23
:10879000000400480D4885461EF06FFF0C480D4947
:1087A0000D4A002302E0D458C4500433C4188C424C
:1087B000F9D30A4A0A4C002301E013600432A242B2
:1087C000FBD321F0BDF8FFF73BFFFEE700FC0020E4
:1087D00000000020380D0020E8230308380D002099
:1087E000E86F0020FEE700000368074A934206D1C5
:1087F000DA69D20606D510221A6200F063BB034A7A
:108800009342F5D0704700BF00800040003801401F
:108810007047FEE7FEE7FEE7FEE77047704700009F
:1088200008B50BF093FA024A13780133137008BDB0
:1088300004000020014811F00BBA00BF580D0020C1
:1088400001480EF046BF00BF546C002001480DF0F7
:10885000D3BC00BF9811002001480DF0CDBC00BF73
:10886000A814002001480DF0C7BC00BF0815002067
:1088700001480DF0C1BC00BFF811002010B5044C38
:1088800020460BF0A9FF2046BDE81040FFF7ACBF23
:10889000E8120020704701200DF04ABE02200DF0C2
:1088A00047BE04200DF044BE08200DF041BE10204C
:1088B0000DF03EBE0E4BDA68920602D520200DF078
:1088C00037BEDA68500601D54020F8E7DA681106AD
:1088D00001D58020F3E7DA68D20502D54FF4807025
:1088E000EDE7DB689B0502D54FF40070E7E77047C2
:1088F00000080058134BDA68510503D54FF4806027
:108900000DF016BEDA68120502D54FF40060F7E7E5
:10891000DA68D00402D54FF48050F1E7DA689104A8
:1089200002D54FF40050EBE7DA68520402D54FF459
:108930008040E5E7DB681B0402D54FF40040DFE729
:10894000704700BF0008005810B5044C20460BF0DB
:1089500043FF2046BDE81040FFF746BF58120020F5
:1089600001480DF08DBF00BF6C15002001480EF0CE
:1089700013BC00BF6C15002000B591B02C22002163
:1089800005A821F059F81E481E4B03601F23836081
:108990004FF080420023C0E90433C0E9072383611C
:1089A0004FF48073436211F0D1F908B100F070F810
:1089B000134811F029FB08B100F06AF84FF07C531E
:1089C00000220B930E480C924FF4807305A9069277
:1089D0000A920F9311F016FA08B100F059F8094BFA
:1089E000094A9B680648DB4313606946002211F080
:1089F000BFFA08B100F04CF8002011B05DF804FB9C
:108A0000580D002000280040900D0020024B98686F
:108A10000021C043704700BF00280040024B986807
:108A20000021C043704700BF0028004070477047D6
:108A3000BFF34F8F0549064BCA6802F4E062134347
:108A4000CB60BFF34F8F00BFFDE700BF00ED00E03C
:108A50000400FA054FF0B04382B09A6C02439A6466
:108A60009B6C18400190019B02B0704710B5064CFA
:108A70000649802220460CF079FB2268136843F0F7
:108A80001003136010BD00BF58120020781300209F
:108A900008B5FFF7CDFF0000012810B50BD1094C38
:108AA0000949802220460CF061FB2268136843F0DC
:108AB0001003136010BD0228FCD1BDE81040FFF781
:108AC000D5BF00BFE8120020001400202DE9F743B5
:108AD0009DF828509DF82C40012B14BF4FF0000842
:108AE0004FF40058012D06460F4632D0032D33D0E7
:108AF000ADB30025013AD2B2022A35D8544B53F80F
:108B00002290012E4BD10420FFF7A4FF3046FFF73F
:108B1000A1FF002211460E200DF012F90E200DF0DB
:108B200041F94C4B5C704C4C4C4B25610C21C4E919
:108B3000003720460023C4E90513C4E90298C4E9BC
:108B40000733C4E909330CF08BFA014688B1FFF70B
:108B50006FFF4FF4C065CDE74FF48065CAE7022A86
:108B600005D14FF08059CCE74FF00009C9E7A9467D
:108B7000C7E720460CF0DEFB01460028E7D120467F
:108B80000CF0FDFB0028E2D120460CF0B4FB0028DD
:108B9000DDD1304603B0BDE8F043FFF77DBF022EC4
:108BA00053D12C4B04209C70FFF754FF0120FFF79A
:108BB00051FF002211460B200DF0C2F80B200DF0E2
:108BC000F1F8274C274B2561C4E900370C2200231C
:108BD0002046C4E90298C4E90523C4E90833A36226
:108BE00063660CF03DFA01460028B0D120460CF037
:108BF000A1FB01460028AAD120460CF0C0FB0028AA
:108C0000A5D120460CF077FB0028A0D1FFF72EFF5E
:108C10004FF44013009302AB13E9060020460CF01A
:108C2000F3FA002893D1104AD2F8803043F08053F1
:108C3000C2F880302268936843F4800393604FF059
:108C4000B042936843F40043936003B0BDE8F083FF
:108C500054ED0208A4140020E8120020003801405E
:108C60005812002000800040000800582DE9F34110
:108C70009DF820809DF824C0CDE9008C16461D4645
:108C800004460F46FFF722FF064B0C2044431819F9
:108C900001221A5547600672457280F80A8002B0B8
:108CA000BDE8F08180140020022810B5044605D1EB
:108CB00007480BF0F1FC28B1FFF7BAFE012801D1FB
:108CC0000448F6E70C20044B444300221A5510BD1B
:108CD00058120020E812002080140020012808B556
:108CE0000BD1094892B20CF02BF928B1022814BF1D
:108CF0006FF006006FF0050008BD022802D103489E
:108D000092B2F0E70020F7E7E812002058120020A6
:108D1000012802D1044800F021BE022801D10348F5
:108D2000F9E76FF006007047080000201C000020E3
:108D3000012807B507D108480DF1070100F04BFEE7
:108D400003B05DF804FB022803D104480DF10701CC
:108D5000F4E76FF00600F3E7080000201C00002095
:108D600070470000012802D1044800F09BBD022892
:108D700001D10348F9E76FF00600704708000020B2
:108D80001C00002070B5184E184D00240C236343BE
:108D90009B5DC3B1022C1AD12B68DA69D103FCD4D4
:108DA000DA695202FCD528460CF079FA2B681022B9
:108DB0001A621A6822F010021A6028460BF08DFC25
:108DC000E86F0DF007F90134032CDFD170BD012CE1
:108DD000F9D10748036810221A621A6822F01002BB
:108DE0001A600BF059FCEEE78014002058120020A6
:108DF000E812002073B50C4C0C4E0025022D0BD050
:108E000023784BB1AB5D0193A37A0093227A637A06
:108E10006168E8B2FFF75AFE0135032D04F10C0436
:108E2000ECD102B070BD00BF80140020A41400205B
:108E300070B51D4B02689A42044615D10BF04DFCEB
:108E40001A4E002516F8011B022001350AF054FEC7
:108E5000802DF7D1154916482A4600F032FD1349F6
:108E60002A4620460CF082F92268124B9A4216D10B
:108E700020460BF032FC104E002516F8011B012095
:108E800001350AF039FE802DF7D10B490B482A46EF
:108E900000F017FD08492A4620460CF067F9BDE8A6
:108EA000704007480AF090BE008000407813002010
:108EB0001C000020003801400014002008000020A1
:108EC000F8130020F8B5284B02689A4204461DD1D9
:108ED0000BF003FC254B264F1B685D68C5F1800530
:108EE000ADB20026B54231DC214922482A4600F0C5
:108EF000E8FC80221E4920460CF038F91E4B1A78F7
:108F0000012A03D100221A700AF0B8FB22681B4B19
:108F10009A4216D120460BF0E0FB194B194F1B6803
:108F20005D68C5F18005ADB20026B54215DC154976
:108F300015482A4600F0C5FC1249802220460CF054
:108F400015F9BDE8F84011480AF03EBE17F8011BBC
:108F500002200AF0D1FD0136C4E717F8011B0120F9
:108F60000AF0CAFD0136E0E70080004098110020B9
:108F7000781300201C000020940D002000380140D0
:108F8000F81100200014002008000020F813002031
:108F900073B51C4B1C4C064600251C481D700CF07C
:108FA00094F933681A4A5B6A8DF807301523C4E9CF
:108FB000002320468023C4E90255C4E90435C4E9EE
:108FC000065525620CF094FF08B1FFF731FDF467F8
:108FD000A662FFF74BFD9DF8071002200AF08CFDFA
:108FE00001220DF107010B4800F06BFC0A480AF062
:108FF000EBFD0A4B1A781AB901221A700AF036FBF7
:1090000002B070BDBA5700209811002058120020FD
:10901000080002401C000020F8130020940D0020DE
:1090200008B50A480EF007FC002211460C200CF08F
:1090300087FE0C200CF0B6FE00220D2011460CF02D
:109040007FFEBDE808400D200CF0ACBE30000020D3
:109050007047000038B5054D002415F8013B0BB1F1
:10906000FFF7DEFF0134042CF7D138BD681500206E
:1090700008B5164B164A1A605A680AB9154A5A605A
:1090800000220121C3E90221C3E90422C3E9062227
:109090001A620E48102283F842200DF0DBFA08B164
:1090A000FFF7F6FC094800210EF0B6F808B1FFF70B
:1090B000EFFC064800210EF0DBF808B1FFF7E8FCF2
:1090C000BDE808404FF400100EF0FCB86C1500200D
:1090D000005800405C08700010B50446FFF7C8FF58
:1090E000014B01221A5510BDB815002010B50446D9
:1090F00004480DF008FB08B1FFF7CAFC024B002240
:109100001A5510BD6C150020B815002008B5164B77
:109110009942164B20D8164A5A601B6813B313485D
:109120000DF0F1FA11480DF095FA08B1FFF7B0FC17
:109130000E4800210EF070F808B1FFF7A9FC0B48AB
:1091400000210EF095F808B1FFF7A2FCBDE8084039
:109150004FF400100EF0B6B8064A914294BF064A8A
:10916000064AD9E708BD00BFA08601006C150020A3
:10917000DB0A301090D003009F0D70005C08700077
:1091800013B59DF81000002814BF4FF000700020A8
:10919000009049000A480DF0CFFA50B9084C20461B
:1091A0000EF035F82028FAD105480EF033F80428DF
:1091B00003D16FF0030002B010BD0020FBE700BF39
:1091C0006C15002013B54FF00070009049000A485C
:1091D0000DF004FB50B9084C20460EF018F820287A
:1091E000FAD105480EF016F8042803D16FF00300F9
:1091F00002B010BD0020FBE76C1500207047000096
:1092000038B5054D002415F8013B0BB1FFF730FFD1
:109210000134042CF7D138BDB815002070B50D46C7
:10922000144606460AF0C6FD30600AF0C9FD286003
:109230000AF0CCFD206070BDBFF34F8F0549064B8F
:10924000CA6802F4E0621343CB60BFF34F8F00BFE4
:10925000FDE700BF00ED00E00400FA0572B6EFF391
:10926000108303607047036883F3108862B6704709
:109270001FB514284FF00003CDE902330C460CD87B
:1092800009280CD90A380A2809D8DFE800F066084E
:10929000080808680808640B6200FF2861D06FF0B6
:1092A000030054E0304B3148314A01934FF0004302
:1092B000C0E900232F4B04221B6883604261002316
:1092C0000122C2614FF4805106220383C0E90333B7
:1092D000C0E90933C0E90C12837680F8203080F8A9
:1092E0002C30836380F83C30C3640AF079FD08B108
:1092F000FFF7CEFB1D480BF03DF908B1FFF7C8FBA7
:1093000000231A4801A9CDE902330AF0F1FE08B1A1
:10931000FFF7BEFB15480BF057F808B1FFF7B8FB95
:109320000A2112480AF086FE10480BF005F90F4892
:109330000AF0DBFE104B019A80B29A42208004BFF3
:1093400000EB4000208009480BF0A2F8002004B098
:1093500010BD0A4BA7E70A4BA5E70A4BA3E70A4B48
:10936000A1E7054B9FE700BF04000008BC150020E3
:109370000024014094000020004000B80800000CC8
:1093800010000010400000180008002C70477047C3
:10939000014B1878704700BF99000020014B1878E6
:1093A000704700BF98000020034B00221A70034B47
:1093B00001221A70704700BFBA570020B85700202A
:1093C000024B53F8203003B118477047201E00208D
:1093D00008B5FDF77FF823F0CFFB0DA3D3E90023F9
:1093E000FDF71CFAFDF7C8FBC0B22F280ED80A4BB8
:1093F00000221A70094B082203F8302003EBC00248
:109400005060BDE8084010460AF0DEBB08BD00BF52
:10941000EF39FAFE422EE63FBA570020A01D002089
:10942000000900F590108002704708B500F00F00A9
:10943000FDF750F802460B4600204FF0804123F024
:10944000D5FBFDF799FB80B208BD00002F2870B551
:1094500004460D4600F28980FFF7E7FF434E1422D1
:109460006243B318B050032D4FF00202DA6034D8D3
:10947000012D35D99A604FF488125A602046FFF7C3
:10948000CFFF05462046FFF7D0FFE96890FAA0F22B
:10949000B2FA82F35A00032393400B4090FAA0F2F1
:1094A000B2FA82F25200D340012B4FF0140224D0C2
:1094B000022B22D0142101FB046128460CF006FF88
:1094C00014F00F011DD10A46062002210CF038FCD1
:1094D0000620BDE870400CF065BC043D012D07D9A5
:1094E000142303FB046302229A604FF44412C4E77E
:1094F00001229A604FF40412BFE702FB04629360FA
:10950000D8E7012906D10720002202210CF018FC1F
:109510000720DEE7022905D1082000220CF010FC0C
:109520000820D6E7032906D10920002202210CF0E9
:1095300007FC0920CDE7042906D10A2000220221D8
:109540000CF0FEFB0A20C4E7053904294FF00002A5
:109550004FF0020104D816200CF0F2FB1620B8E7F9
:1095600029200CF0EDFB2920B3E770BD2016002068
:1095700010B50C46FFF759FFFCF7ACFF23F0FCFADF
:109580000BA3D3E90023FDF749F9FDF7F5FAC3B2C0
:109590002F2B06D8084A52F8230028B942F8234056
:1095A00010BD6FF00200FBE70020F9E7AFF3008089
:1095B000EF39FAFE422EE63F201E00202DE9F84347
:1095C000174E184D184FDFF86480DFF864900024C0
:1095D0000F2C05DDA4F11203052B01D91C2C15D18C
:1095E00057F8243093B973682B60B3686B60F368E5
:1095F000AB603369EB602B7C43B198F800102046D8
:10960000FFF724FF49462046FFF7B2FF0134302C14
:1096100006F1140605F11405DAD1BDE8F88300BFA0
:1096200020160020E0190020201E00209A000020B3
:10963000A9930008F8B5124E124D134F00240F2CB9
:1096400005DDA4F11203052B01D91C2C10D157F80C
:1096500024306BB933686B607368AB60B368EB60E0
:109660002046F3682B612946FFF7DAFE0CF02EFE48
:109670000134302C06F1140605F11405DFD1F8BDD4
:10968000E019002020160020201E0020084B024672
:109690000021084819700421074B00F8321000EB34
:1096A000C2000C2101FB023242600AF08DBA00BFF9
:1096B000BA570020081F00205C200020084B0246FB
:1096C0000021084819700521074B00F8321000EB03
:1096D000C2000C2101FB023242600AF075BA00BFE1
:1096E000BA570020E01E0020A81F002083680BB19D
:1096F000406818477047003818BF012070470FF0C6
:1097000067BF000037B503460C2410460E4A5C4381
:10971000042B02EB0405135598BF0C4AA96094BFB3
:1097200052F823400024FFF7E6FF4FF0FF310246D6
:1097300000932046064B0FF055FF002814BF6FF032
:109740000600002003B030BD5C20002060ED020860
:109750008D960008042898BF0D4B70B598BF53F83C
:1097600020400C4D4FF00C0300FB03F305EB030608
:1097700088BF0024E8547260204610F01FF818B922
:1097800020460FF0E1FF08B16FF0060070BD00BF8A
:1097900060ED02085C200020042898BF0B4A08B541
:1097A000034698BF52F82000094A4FF00C0101FB14
:1097B00003234FF0000288BF00205A600FF074FFAF
:1097C000002814BF6FF00600002008BD60ED0208FD
:1097D0005C20002037B503460C2410460E4A5C433B
:1097E000042B02EB0405135598BF0C4AA96094BFE3
:1097F00052F823400024FFF77EFF4FF0FF3102466E
:1098000000932046064B0FF0EDFE002814BF6FF0CA
:109810000600002003B030BDA81F002074ED020830
:10982000BD960008042898BF0D4B70B598BF53F83B
:1098300020400C4D4FF00C0300FB03F305EB030637
:1098400088BF0024E854726020460FF0B7FF18B9B3
:1098500020460FF079FF08B16FF0060070BD00BF21
:1098600074ED0208A81F0020042898BF0B4A08B511
:10987000034698BF52F82000094A4FF00C0101FB43
:1098800003234FF0000288BF00205A600FF00CFF46
:10989000002814BF6FF00600002008BD74ED020818
:1098A000A81F0020C26803699A4282BF40681B1843
:1098B0000133981A704708B54168FFF7F3FF081A9B
:1098C00008BD2DE9F743044601A8164688460AF06C
:1098D00085F92046FFF7EFFF864228BF064620465F
:1098E000FFF7E9FFE3682569A268AB429CBF6368A4
:1098F00001335D1B814623692068AE4202FB0300F1
:1099000013D87243414620F06FF8236962683344EC
:10991000934296BF236900239B19236101A80AF093
:109920005FF9304603B0BDE8F08305FB02F73A4625
:10993000414620F059F8A2682068751B6A4308EB7D
:10994000070120F051F84E452561E7D92369626887
:10995000934234BF01330023E360DFE72DE9F34195
:10996000044601A8164688460AF038F92046FFF753
:1099700099FFE768E5682369A2682168864228BFE5
:1099800006469D4284BF636801335D1BAE4202FB05
:10999000071110D87243404620F026F86268374419
:1099A000974288BF0027E76001A80AF019F93046FE
:1099B00002B0BDE8F08105FB02F73A46404620F0D0
:1099C00013F8A2682168751B6A4308EB070020F0B2
:1099D0000BF8E560E8E710B504460846E26823693D
:1099E0009A4223D0A268E1682368541E072C18D835
:1099F000DFE804F00408170C171717105B5C0370FE
:109A0000002010BD33F811300380F9E753F82130FE
:109A10000360F5E703EBC103D3E90023C0E90023AA
:109A2000EEE701FB02311FF0DFFFE9E76FF00E0008
:109A3000E7E70FB400B5ADF5037D09F0E7F8C0B274
:109A4000012808D185AA8499019202A820F0E8FE95
:109A500002A809F0E7FE0DF5037D5DF804EB04B004
:109A6000704709F0C7B808B509F0D0F8C0B208BD12
:109A700010B512F02DFB0128044604D030B90AF0CD
:109A8000BDF8204610BD6FF00500FBE76FF0060043
:109A9000F8E7000038B512F013FB054600BB09F0EB
:109AA0002DFB0446A0B128460AF0A8F80E4B0F493A
:109AB0001D60012228460AF09DF8044650B909F0BD
:109AC0002FFB4FF47A714143224620460AF094F866
:109AD000204638BD0648A42109F0A4FE2C46F7E72D
:109AE0006FF00604F4E700BFE821002061A600083B
:109AF00088ED020838B50B78013B044615461A4834
:109B0000092B2CD8DFE803F0052B2B1B23272B2B4D
:109B10002B1F09F087FE154809F084FE144809F050
:109B200081FE144B144853F8241009F07BFE0B2CD3
:109B300019D129461148BDE8384009F073BE09F033
:109B400071FE0F48E8E709F06DFE0E48E4E709F002
:109B500069FE0D48E0E709F065FE0C48DCE709F016
:109B600061FE0B48D8E738BD9EED0208D4ED02082F
:109B700009EE0208E4F3020847EF020859EF020871
:109B80003EEE020873EE0208A8EE0208DDEE0208BF
:109B900012EF020838B50B78012B0446154607D0A2
:109BA000032B1CD003BB134809F03CFE124803E012
:109BB000104809F037FE114809F034FE104809F04A
:109BC00031FE104B104853F8241009F02BFE0B2CDB
:109BD0000FD129460D48BDE8384009F023BE05489D
:109BE00009F020FE0A48E7E7024809F01BFE094891
:109BF000E2E738BD71EF0208DCEF0208A7EF0208C8
:109C000009EE0208E4F3020847EF020859EF0208E0
:109C100011F0020846F002087047000070B5434E8C
:109C20000446042556F8043B1BB11B6A0BB12046C1
:109C30009847013D15F0FF05F4D123780B2B07D091
:109C40000F2B04D13A4809F0EDFD3A4B1D7070BD61
:109C500063780E2B63D1384809F0E4FD354B1A7850
:109C6000042A1BD0022628461E7009F0C7FF33497C
:109C70002A46284609F0BEFFB8B920F0E5FB43426A
:109C800003F01F0300F01F004FF47A7158BF5842D1
:109C900000FB01113246284609F0AEFF637D032B1D
:109CA0001FD8DFE803F00B24272A4FF40E71244855
:109CB00009F0B8FD284609F0A1FFEFE7214A00238B
:109CC0001380E37D217E1B0243EA0143A17D0B4308
:109CD0005360A37EE17E1B0243EA0143617E0B4396
:109CE0009360D4E90101184B83E80300AFE7154AFC
:109CF0000123E5E7134A0223E2E7E37D217E114ACF
:109D00001B0243EA0143A17D0B43D360A37EE17EA6
:109D10001B0243EA0143617E0B431361E1E70F2B12
:109D2000DFD10A4809F07EFDDBE700BFA821002053
:109D30007BF002080822002086F00208E1AB000850
:109D400093F00208EC21002000220020A3F002087A
:109D500070B5134B134A1B6804464078E0B921796B
:109D6000117003B198472378012B04D12379ABB14B
:109D70000D4809F057FD002001F06CFD0B4E042545
:109D800056F8043B1BB15B690BB120469847013D77
:109D900015F0FF05F4D170BD0021E1E70448E8E7C4
:109DA000342400200E230020B0F00208A821002057
:109DB000C9F00208014BDB6A184700BF480D0308D1
:109DC000704708F059BF30B58BB0044603230290AA
:109DD00001A80D468DF8043012F0C2FA38B10128FE
:109DE0000CBF6FF005006FF006000BB030BD2946C8
:109DF000204608F04FFFF8E708F066BF30B58BB09B
:109E000004460823029001A80D468DF8043012F094
:109E1000A7FA38B101280CBF6FF005006FF00600FB
:109E20000BB030BD092301A88DF80430029412F064
:109E300097FA0028EED12946204608F053FFEFE7B5
:109E400030B58BB004460F23029001A80D468DF863
:109E5000043012F085FA38B101280CBF6FF005000C
:109E60006FF006000BB030BD2946204608F062FFB7
:109E7000F8E730B58BB007238DF80430036804464B
:109E80001BBA01A80D46029312F06AFA38B10128F4
:109E90000CBF6FF005006FF006000BB030BD294617
:109EA000204608F06FFFF8E708F086BF30B58BB0AA
:109EB00004460D4609F002F8C0B2012807D102237A
:109EC00001A88DF80430029412F04AFA30B92946FC
:109ED00020460BB0BDE8304008F07CBF01280CBF25
:109EE0006FF005006FF006000BB030BD30B58BB0E1
:109EF00004460C23029001A80D468DF8043012F0A0
:109F00002FFA38B101280CBF6FF005006FF0060082
:109F10000BB030BD0D2301A88DF80430029412F06F
:109F20001FFA0028EED10E2301A88DF80430029408
:109F300012F016FA0028E5D12946204608F080FFE5
:109F4000E6E708F097BF072801D808F099BF6FF03F
:109F50000200704708F0A0BF08F0A4BF014B1878BA
:109F6000704700BF0E23002008F056BE7FB505469F
:109F700008F052FE431EDBB2012B044601D908282B
:109F80001BD101A808F05AFE002201A913460120A6
:109F900011F8016B1EB100FA02F633439BB2013295
:109FA0000C2AF5D1082C01D0012C02D123F48073A6
:109FB0009BB22B80002004B070BD6FF00200FAE766
:109FC000F0B58FB006460F4608F026FEFF23ADF829
:109FD00004304FF47F43ADF80630431EDBB200245B
:109FE000012BCDE902440546049401D908287DD10E
:109FF000FFF73EFD0446002855D133884BB9012DAB
:10A0000003D140F2FF13338003E0082D4ED0022D20
:10A010004ED00C22002102A81FF00EFD3088002235
:10A0200040FA02F1CE07D3B20ED50EAE03F0FE0118
:10A0300003F00103314406EB430331F8306C33F88D
:10A04000343C334321F8303C01320C2AE8D1082D4E
:10A0500001D0012D0ED1BDF81030002203F47F4352
:10A06000ADF8103011460126D5B2072D23D909B11C
:10A07000ADF8103023238DF8143005A802AB0693F9
:10A0800012F06EF9054670BB24238DF8143005A834
:10A0900002AB069312F064F909F02EF9B0B9FFF79C
:10A0A000F9FC0446C0B120460FB0F0BDFF23AAE77B
:10A0B00040F6FF73A7E740FA02F5ED0741BF06FA45
:10A0C00002F10B439BB201210132CDE7284609F092
:10A0D00019F90028E3D0E6E7002FE4D002A808F041
:10A0E000B7FD0446DFE76FF00604DCE76FF002041B
:10A0F000D9E708B508F0E2FEC0B208BD022808B5ED
:10A1000005D808F0E1FE09F067FD002008BD6FF0FA
:10A110000600FBE708F0E4BE00B58BB0012301A800
:10A120008DF8043012F040F838B99DF80800003876
:10A1300018BF01200BB05DF804FB0020FAE730B532
:10A140008BB005460C4608F0CBFE30B921462846B8
:10A150000BB0BDE8304008F0DFBD0F2C03D86FF026
:10A1600006000BB030BDFFF7D7FF044630B90146FB
:10A17000102228461FF060FC2046F2E70F2301A8BA
:10A180008DF8043012F010F804460028E7D1029947
:10A19000102228461FF028FCEEE730B58BB00546AC
:10A1A0000C4608F09DFE30B9214628460BB0BDE8AC
:10A1B000304008F0D9BD032C03D86FF006000BB077
:10A1C00030BDFFF7A9FF044630B9014604222846F6
:10A1D0001FF032FC2046F2E7072301A88DF8043077
:10A1E00011F0E2FF0028E8D1029B1BBA2B60E6E7E2
:10A1F00030B58BB005460C4608F072FE30B92146EA
:10A2000028460BB0BDE8304008F0FEBD032C03D853
:10A210006FF006000BB030BDFFF77EFF044630B98B
:10A220000146042228461FF007FC2046F2E70623D9
:10A2300001A88DF8043011F0B7FF04460028E7D1DB
:10A24000042202A928461FF0CFFBEEE730B58BB001
:10A2500005460C4608F044FE30B9214628460BB0AE
:10A26000BDE8304008F0DEBD0F2C03D86FF00600CB
:10A270000BB030BDFFF750FF044630B90146102245
:10A2800028461FF0D9FB2046F2E70E2301A88DF8DF
:10A29000043011F089FF04460028E7D1029910220A
:10A2A00028461FF0A1FBEEE708F02CBE30B58BB0BE
:10A2B00005238DF80800054601A80C468DF80430EA
:10A2C00012F04EF8032807D0012808D054B12846D0
:10A2D00008F01EFE0BB030BD6FF00200FAE76FF021
:10A2E0000500F7E72046F5E708F01EBE30B58BB055
:10A2F00005460C46FFF710FFB8B1002301A88DF802
:10A30000043011F051FF10B16FF0060011E09DF81C
:10A310000830012B1CD0022B22D0002BF4D1012DB0
:10A3200009D0022D0BD0002DEED1F4B1284608F053
:10A3300001FE0BB030BD0E4B00221A70F5E7022370
:10A340008DF8083001A812F00BF80028EDD0DBE7FB
:10A35000012DF7D0022DF2D0002DD5D10023EFE74B
:10A36000012DE8D0022DF7D1DFE72046E1E700BF5D
:10A370000822002070B58EB001230E468DF81430EF
:10A38000054600284AD18DF8183005A811F0E8FFDD
:10A39000002847D101AC002D4FD11021204608F0F4
:10A3A000BBFC0F2305A88DF81430069411F0D8FFDC
:10A3B000002837D10421204608F0D6FC07238DF869
:10A3C0001430019B05A81BBA069311F0C9FF48BBC6
:10A3D0001021204608F026FD0C2305A88DF8143026
:10A3E000069411F0BDFFE8B90D2305A88DF81430CF
:10A3F000069411F0B5FFA8B90E2305A88DF8143006
:10A40000069411F0ADFF68B908F08EFD2946FFF7FC
:10A410006DFF48B9002E41D1304605E005A811F086
:10A42000C3FE18B16FF006000EB070BD9DF8183075
:10A43000012B08BF8DF81800A7E70821204608F077
:10A44000BBFC022305A88DF81430069411F088FF98
:10A450000028E7D10821204608F00EFC032305A8B8
:10A460008DF81430069411F07BFF0028DAD110210A
:10A47000204608F029FC082305A88DF8143006941E
:10A4800011F06EFF0028CDD1092305A88DF81430F6
:10A49000069411F065FF0028BCD0C3E7284608F0F9
:10A4A00025FDC1E708B508F069FF003818BF012095
:10A4B00008BD38B50C46054612F08AFC24B1284682
:10A4C000BDE8384008F04EBF204638BD00B58BB01F
:10A4D0002C2301A88DF8043011F066FE9DF80800C9
:10A4E0000BB05DF804FB00002DE9F0438FB005468A
:10A4F0000E4690461F4608F0F3FC691C044629D11D
:10A50000721C0AD0003E18BF012608F0F7FD8642F3
:10A5100003D0304608F0F8FD50BBB8F1FF3F07D03C
:10A5200008F0FEFD804503D0404608F0FFFDF8B975
:10A530007B1C07D008F006FE874203D0384608F09F
:10A5400007FEA8B9BDB9284609F058FB2D4B28468F
:10A550001D600DE0B5F1000918BF4FF0010908F0CA
:10A56000BBFD8145CCD0484608F0BCFD0028C7D0D3
:10A570000FB0BDE8F083012C29D1002305A88DF888
:10A5800000408DF814408DF8183011F0E9FE10B13C
:10A590006FF00600ECE7FFF799FF8DF804006846BE
:10A5A00012F0B0FA044638B908F0BEFC012801D117
:10A5B000154B1C702046DBE7012805D00B28E7D19E
:10A5C0000499124809F02EF96FF00500D0E7002C2D
:10A5D000DED1012305A88DF814308DF8183011F064
:10A5E000BFFE0028D4D108F09FFC022807D18DF8C7
:10A5F000180005A88DF8144011F0B2FEDAE708F053
:10A6000093FCD7E7E821002008220020E6F00208AA
:10A6100008B5E0B14FF0FF331A4619460120FFF7A5
:10A6200063FF002012F0D4FB01220B49042009F043
:10A63000E1FA024630B941F27071042009F0DCFA07
:10A64000002008BD4921054809F0ECF8F8E704208E
:10A6500009F0D4FAF4E700BF9DAB0008FEF0020851
:10A660004FF0FF331A4619460120FFF73DBF10B5E2
:10A6700001210846FFF77EFE4FF0FF33BDE8104092
:10A680001A4619460120FFF72FBF30B58BB005469B
:10A690002C238DF8080001A80C468DF8043011F029
:10A6A0005FFE28B95CB1284608F056FC0BB030BDFF
:10A6B00003280CBF6FF002006FF00600F6E720469B
:10A6C000F4E708F067BC30B58BB00546292302904B
:10A6D00001A80C468DF8043011F042FE28B93CB1B7
:10A6E000284608F05DFC0BB030BD6FF00600FAE7BD
:10A6F0002046F8E708F060BC30B58BB005462A2349
:10A70000029001A80C468DF8043011F029FE28B9FA
:10A710003CB1284608F056FC0BB030BD6FF0060087
:10A72000FAE72046F8E708F06BBC30B58BB0054679
:10A730001D238DF8080001A80C468DF8043011F097
:10A740000FFE28B93CB1284608F060FC0BB030BDC4
:10A750006FF00600FAE72046F8E700B58BB008F086
:10A76000BFFB01280DD1FFF7D7FC50B1272301A86B
:10A770008DF8043011F018FD00B902980BB05DF8A7
:10A7800004FB0BB05DF804EB08F04CBC70B58AB06C
:10A7900005462723029001A80C468DF8043011F0DD
:10A7A000DFFD18B16FF006000AB070BD282305F573
:10A7B0007A7601A88DF80430029611F0D1FD0028B8
:10A7C000F0D144B1304608F045FC0028ECD12846D1
:10A7D00008F02EFCE8E72046E6E708F035BC70B547
:10A7E0008AB005462823029001A80C468DF8043053
:10A7F00011F0B6FD18B16FF006000AB070BD272346
:10A80000A5F57A7601A88DF80430029611F0A8FD1E
:10A810000028F0D144B1304608F00AFC0028ECD101
:10A82000284608F017FCE8E72046E6E708F01EBCDB
:10A8300030B58BB005462D238DF8080001A80C46D5
:10A840008DF8043011F08CFD28B95CB1284608F071
:10A8500013FC0BB030BD03280CBF6FF002006FF08B
:10A860000600F6E72046F4E708F024BC08F028BC10
:10A870001FB52F238DF8083008F0CEF902A915F086
:10A88000B4FB05B05DF804FB1FB531238DF808302B
:10A8900008F0C2F902A915F0A8FB05B05DF804FBA9
:10A8A000014B1868704700BF00220020014BB3F92C
:10A8B0000000704728240020014B93F900007047E6
:10A8C0003824002010B590B0044605A80FF066F8B3
:10A8D000059807A912380FF0E9F80C9B094903F213
:10A8E0006C7303930A9B02930B9B01330193079BA9
:10A8F00000932046DDE908321FF0FCFD002010B077
:10A9000010BD00BF0BF1020800B58BB01F2301A8DA
:10A910008DF8043011F048FC18B902980BB05DF8BE
:10A9200004FB6FF00600F9E730B58BB005461F2336
:10A9300001A80C468DF8043011F036FC50B901A87E
:10A94000029511F00DFD40B954B1284608F046FBC0
:10A950000BB030BD6FF00600FAE76FF00200F7E7CA
:10A960002046F5E770B58AB005461F2601A80C46BB
:10A970008DF8046011F018FCB8B9212301A88DF8F6
:10A9800004308DF80C5011F0EBFC01A88DF8046038
:10A990008DF80C5011F0E4FC28B94CB1284608F0B1
:10A9A000EDFA0AB070BD032804D06FF00600F8E796
:10A9B0002046F6E76FF00200F3E700B58BB01F23E7
:10A9C00001A88DF8043011F0EFFB20B99DF80C00C0
:10A9D0000BB05DF804FBF920FAE708F059BB022838
:10A9E00001D808F05BBB6FF0020070472DE9F04121
:10A9F00096B00E46694681E80C000746FFF766FDF3
:10AA00008046FFF789FB0546002800F0988010F08B
:10AA100039F9044610B16FF005003BE008F084FA04
:10AA200002283AD18DF838000DA88DF8344011F085
:10AA300097FC8DF81A8008F02BFB60B108F028FB1A
:10AA4000012802D10020FFF7CAFF04230DA88DF8CA
:10AA5000343012F057F83D4B1B78012B05D10A23F7
:10AA60000DA88DF8343012F04DF80DA9F0B211F0A8
:10AA700041FB78B300238DF80C300593ADF8183006
:10AA800003A812F0F5F800284CD1002C0CBF6FF091
:10AA90000200002016B0BDE8F08108F045FA012858
:10AAA000C7D12B4B1B7873B1022BC2D1204609F0C2
:10AAB000A5F80D238DF8203008F0FCFA00F007000F
:10AAC0008DF8240002E00A238DF8203008A812F047
:10AAD00019F8AEE79DF800308DF810309DF8013080
:10AAE000ADF8186005978BB19DF802308DF81B30DA
:10AAF0009DF8033083B19DF804308BB900238DF8A5
:10AB00000C30144B00221A702C46B9E708F0B2F949
:10AB100001308DF81B00EBE708F0BEF90028EDD0FE
:10AB20000123ECE7A0F10E03DBB2012B7FF673AF3C
:10AB30000B2807D10799084808F074FE6BE76FF0FF
:10AB40000B00A7E76FF00600A4E700BF3924002040
:10AB5000082200200E230020E6F002081FB50D4A4F
:10AB6000034601210C4811708DF808304322002360
:10AB70008DF809308DF80B300270009304AB13E9A7
:10AB80000C00FFF733FF003818BF0120404205B02A
:10AB90005DF804FB8A2100209820002010B5FFF703
:10ABA000BBFA40B94FF0FF33BDE810401A461946D2
:10ABB0000120FFF799BC094CE368984720B9BDE82C
:10ABC00010400220FFF7CABFE368984720B1BDE8F4
:10ABD0001040002001F050BE10BD00BFBC0000209E
:10ABE0001FB50123002103228DF808308DF80930AC
:10ABF0008DF80B308DF80C308DF80A20009104ABE5
:10AC000013E90C000248FFF7F1FE05B05DF804FB04
:10AC1000781B0308F0B56D4E8BB00446042556F83A
:10AC2000043B1BB1DB690BB120469847013D15F091
:10AC3000FF05F4D12378013B0C2B00F28980DFE87B
:10AC400003F0078787A287878787876687B689008B
:10AC500065785F4E5F4FF5B95F4808F0E3FD284621
:10AC600008F0CCFF356008F05FF902280AD18DF8B2
:10AC7000080001A88DF8045011F072FB10B157487C
:10AC800008F0D0FD3B680BB1002098470BB0BDE841
:10AC9000F04008F049B9022D1BD0EB1E012B1AD849
:10ACA0004F4808F0BFFD002008F0A8FF35680135C7
:10ACB000356008F047FA854212D9002333603B68BB
:10ACC00023B148486378436008F07EFFFFF772F8CD
:10ACD000DCE74548E5E72946444808F0A3FDE2E7FC
:10ACE00043490122002008F085FF054648B908F0D5
:10ACF00017FA4FF47A7141432A46284608F07CFF40
:10AD0000DDE740F29B11394808F08CFDD7E7394D5B
:10AD100064782B78ACB9012B03D1374808F082FD59
:10AD20002C7008F001F9012812D1344B1A78042A4A
:10AD30000ED018700C2301A88DF8043011F0E2FE3B
:10AD400006E0012B04D12E4808F06CFD00232B7087
:10AD50000BB0F0BD6378002BFAD10421274A8DF89F
:10AD600004300DEB0100012311708DF8083011F053
:10AD7000F7FA04460028EBD1224808F053FD20469C
:10AD8000FFF72EFFE4E7204B01221A701F4B227AB7
:10AD90001A701F4B627A1A7063781E4A1370002B68
:10ADA000D6D01D480BB0BDE8F04008F03BBD63783D
:10ADB000002BCDD0194808F035FD104B1A78042A25
:10ADC0001CBF03221A700A23B5E700BFA821002088
:10ADD000E82100202C2400202DF102083BF102087C
:10ADE00050F10208AC0000206EF1020888ED020864
:10ADF00061A60008392400208CF1020808220020F6
:10AE00009EF10208B4F1020811240020A4210020C0
:10AE1000E421002012240020BFF10208A3F0020860
:10AE20007FB5012603788DF808300C4605468DF86D
:10AE3000096008F01FF8B44230448DF80A008DF81C
:10AE40000B6002D18DF80C4001E0002CFAD00023F9
:10AE5000009304AB13E90C0069786868FFF7C6FD3E
:10AE6000003818BF0120404204B070BD2DE9F04FFA
:10AE7000437885B00446002B40F09880B0F90E006E
:10AE8000524FDFF84C81237C388040B288F8003084
:10AE900001F060FC237B002B37D0607C4D49B7F973
:10AEA000002051F8201098F900304B48DFF82C9121
:10AEB000DFF82CA108F0B6FCA378012B0CBF4948A1
:10AEC000494808F0AFFCE178484808F0ABFC0026A0
:10AED0005FFA86FB584607F091FD054638B9227B9C
:10AEE000EBB29A4265D85146584608F05FFC0136ED
:10AEF000032EEDD1227BA1683D481EF075FD3D4B30
:10AF0000227B1A703C4BE2781A706379012B58D07F
:10AF10002378012B02D10020FFF762FE374B1A780D
:10AF200082B100221A70364B1B785BB998F9003059
:10AF3000344A354900931278B7F90030097833481C
:10AF400008F070FCE278E02A11D0314B1B6873B135
:10AF50003048027022794270A2684260227B0272FD
:10AF6000E2894281227C02736269026198472A4E1B
:10AF7000042556F8043B1BB19B690BB1204698474A
:10AF8000013D15F0FF05F4D1244890F802316BB172
:10AF900080F802518DF80B5000958DF8095004ABE4
:10AFA00013E90C00B0F80011FFF720FD05B0BDE873
:10AFB000F08FA2684946D25C584608F0F7FB01358D
:10AFC0008DE707F0B1FF0028A2D1A4E728240020D4
:10AFD0003824002064F40208DAF10208FFF10208C4
:10AFE000761B0308EBF10208F6F1020821F50208CE
:10AFF0000F2300200F240020102400201124002003
:10B0000012240020E4210020A421002004F20208E0
:10B010003024002014240020A82100200A2200202F
:10B02000014B1878704700BF3924002010B5044642
:10B03000FFF772F828B1012C06D8054B00201C70D0
:10B0400010BD6FF00B00FBE76FF00200F8E700BFE8
:10B050003924002008F040B808F050B808F060B873
:10B0600008F070B870B5094E3478944228BF144681
:10B0700005462246084606491EF0B6FC054B1A78DE
:10B080002A7000221A703270204670BD0F240020F2
:10B090000F2300201024002070B5044D06460446FE
:10B0A0000FCD0FC42B682360304670BDEC2100200B
:10B0B000F0B591B0002604ACC4E9016605460496DB
:10B0C00007F0AAFD431EDBB2012B08D9082806D0E1
:10B0D000052868D06FF00604204611B0F0BD15BBFE
:10B0E0002046ADF81C5007F0A9FD0028F2D1BDF8AC
:10B0F0001C302A46012114F8010B20B101FA05F297
:10B1000013439BB2012201350C2DF4D10AB1ADF8E5
:10B110001C30002107A8FEF753FF04460028D9D1B0
:10B1200008F0F0F8D8E71B2302A98DF8083014F0D6
:10B130005CFF1E230190C6B207A88DF81C3011F0E9
:10B1400033F8089B0022A3F10C010C20D3B29E42DD
:10B1500003D859D16FF00204BEE7013200FB02F7B9
:10B16000CF59AF42F2D11A0910A901EB420203F004
:10B170000F03012101FA03F322F8303C07A823232F
:10B180008DF81C30089411F0EBF80028A2D124238C
:10B1900007A808948DF81C3011F0E2F80446002846
:10B1A00098D12846BCE7CDB90723ADF8103007A8E1
:10B1B00023238DF81C30089411F0D2F8002889D18F
:10B1C000242307A88DF81C30089411F0C9F8002832
:10B1D00080D1284608F096F804467DE71E2307A88C
:10B1E0008DF81C3010F0E0FF089933460C2000FB6E
:10B1F00003F28A58AA4203D1012202FA03F3D4E7E8
:10B200000133042BF3D1A5E7002465E708B507F067
:10B2100003FD082809D84FF4937323FA00F0C307FD
:10B2200003D5BDE8084008F067B86FF0060008BD18
:10B2300008B5FFF7EBFF024658B1064B0649002060
:10B240009A4208BF042003F5C31303F520638B4221
:10B25000F6D108BDC0AFD235C0FF953608B5FFF7AF
:10B26000D5FF024658B1064B064900209A4208BF56
:10B27000062003F5C31303F520638B42F6D108BD06
:10B280006086973660D65A37FFF7C0BFFFF7BEBF5C
:10B29000014B1878704700BF0822002038B50D46D2
:10B2A000044610B14FF0FF3038BD01F065FC0028B6
:10B2B000F8D0094B84631860084B4362084B8362E3
:10B2C000084BC362084B0949C0E90C34F2224368B9
:10B2D000284698472046E7E7A8210020959B0008CC
:10B2E000F59A00086FA6000821AE000898200020FB
:10B2F000034B53F82030986800B10047704700BFF7
:10B30000A821002038B50B4D002455F8043BE4B2C9
:10B310004BB11B693BB12046FFF7EAFF18B155F866
:10B32000043C1B6998470134E3B2042B64B2ECD1AE
:10B3300038BD00BFA821002000B58BB02F238DF8A9
:10B34000043001A81923029311F00AF80BB05DF83C
:10B3500004FB000070B58EB00546FDF7F1F907F06B
:10B36000ADFDC0B201280ED000F0E8FB002407F0CC
:10B37000DBFD022804D007F0B3FD08B1FEF71AFD8B
:10B3800020460EB070BDC5B913F016F87148724B67
:10B390000360724B4360724B72498360724BC360AF
:10B3A0000023C1E900338B602A46704BCB6010F05C
:10B3B000D3FC88B16FF00604D9E7142D04D1022024
:10B3C00012F0FAFF0025E1E7152D01D10320F7E780
:10B3D000162DDBD10420F3E734238DF8143005A8B3
:10B3E000634B069310F0BCFF0028E3D16B1E012BCA
:10B3F00001D9082D27D1002302A8ADF8063007F0A7
:10B400001DFC04460028B2D1BDF8063002AA014650
:10B41000012412F8016B26B104FA00F10B439BB230
:10B42000012101300C28F4D109B1ADF80630FFF745
:10B43000EDFE014600287BD0FFF7E8FEFFF738FE5F
:10B440000446002893D1052D77D007F049FD00214F
:10B45000FEF790FF0446002889D101F02DF904463B
:10B46000002884D107F060FD2146FEF73FFF044627
:10B4700000287FF47CAF07F045FD2146FEF716FF5C
:10B48000044600287FF473AF07F060FD2146FFF704
:10B49000FCF8044600287FF46AAF07F069FD2146F6
:10B4A000FFF760FA044600287FF461AF07F0A2FDC1
:10B4B0002146FFF739FA07F06DFD2146FFF703F942
:10B4C000044600287FF453AF07F09AFD2146FFF7AA
:10B4D0002CF9044600287FF44AAF07F0A3FD21466B
:10B4E000FFF754F9044600287FF441AF07F0BEFD92
:10B4F0002146FFF79DF9044600287FF438AF07F096
:10B500003DFF11F065FC1B4814F062FD1A4815F070
:10B51000E1FDFFF711FFFEF7BDFA044600287FF4B6
:10B5200026AF1649FFF7BAFE00283FF420AF41E7E7
:10B530000DF10600FEF744FD82E7FFF767FE0028E5
:10B5400083D0FFF763FEFFF7B3FD044600283FF406
:10B550007CAF0CE7D4210020519D00086DAE00089F
:10B5600015AC0008C42100201D9C0008199C00088F
:10B57000000300019C000020A4000020B82100204E
:10B5800070B58AB00546FDF7DDF8C0B230B1022DC6
:10B5900001D0042D06D16FF0020308E0022D01D086
:10B5A000042DF8D107F038FB854203D1002318465B
:10B5B0000AB070BDFEF75CFA03460028F7D101F02F
:10B5C000ADF80028F2D107F09DFE06460028EDD127
:10B5D000002D58D1012012F0EFFE2C463D493E4887
:10B5E000224610F0B9FB002871D12B2301A88DF859
:10B5F000043010F0D9FD002869D19DF8080007F04B
:10B60000ABFC03460028D2D1202601A88DF80460A7
:10B6100010F0CAFD00285AD19DF80C0007F0AEFCCE
:10B6200003460028C3D101A88DF8046010F0BCFDCA
:10B6300000284CD1029807F0D1FC03460028B6D16F
:10B640002E2301A88DF8043010F0AEFD00283ED165
:10B650009DF8080007F010FD03460028A7D1631EDF
:10B66000DBB2012B21D9082C1FD0002D18BF2C468E
:10B67000204607F0D7FA0346002898D12046FFF766
:10B6800069FE034693E7142D04D1022012F094FEC4
:10B690003446A3E7152D01D10320F7E7162D01D17C
:10B6A0000420F3E72C46054698E7242301A88DF8EB
:10B6B000043010F079FD50B9029807F0C9FA03463A
:10B6C00000287FF474AF07F01DFE0028CDD06FF086
:10B6D00006036CE7C4210020D421002010B507F038
:10B6E000EDFBC0B2012809D007F0A6F868B10F49F8
:10B6F0000F4808F097F86FF0060404E0FEF7B8F979
:10B7000004460028F0D0204610BD01F007F804469A
:10B710000028F0D107F0D2FBC0B20128F3D107F026
:10B720007BFABDE81040FFF715BE00BF44F40208E5
:10B7300023F2020870B5064E04464518AC4200D10B
:10B7400070BD14F8011B304608F06CF8F6E700BF36
:10B750007CF40208F0B54FF4807285B000213948BE
:10B76000394D3A4C1EF068F900232B700FF098FA0F
:10B7700080B2C82884BF143880B2E3680638984283
:10B78000606143D30021A17023712B782D4E227864
:10B79000F2545A1CD2B26078B0549A1CD2B2A0783B
:10B7A000B054DA1CD2B2E078B054581D0433DBB286
:10B7B0002279F254A368C0B21944287030441EF0B4
:10B7C00013F92B7821791944C9B200233046DAB233
:10B7D00091422FD81E4B1B481B788DF8083001234F
:10B7E0008DF80B30A369003B18BF01238DF80C3096
:10B7F00000238DF809300093013104ABC9B213E97D
:10B800000C002970FFF7F2F805B0F0BD21695B1A52
:10B81000B3FBF0F6F2B200FB16364EB9A270A27876
:10B82000984202F1FF3228BF1846A2702071ACE79F
:10B830000132F3E716F8012B475C3A4442540133D6
:10B84000C5E700BF3A2400203A2500204029002007
:10B850003B2500200D4A1378BBB10D4B80B9997878
:10B8600009B9117070471A78197960F341021A709A
:10B87000DA780132DA701A690A441A61FFF76ABF8E
:10B880001A7842F002021A70F8E770475C2900202B
:10B89000402900202DE9F8431C46431EDBB2DE2B75
:10B8A0000F46064611462AD8B4F5806F27D8154DA5
:10B8B000154BDFF8589022464FF00108284683F8D0
:10B8C00000801EF091F8C9F80040114C237823F055
:10B8D000030343EA080323701BF0CAFED9F80030C3
:10B8E000E3600C4BA5600025607084F8038025613F
:10B8F000A7611E70FFF72EFF2846BDE8F8836FF0A2
:10B900000200FAE73C2500205C2900203C290020A9
:10B91000402900203B250020014B00225A7070472F
:10B92000832A002038B50F4C00236370A370FEF704
:10B93000E0FBA0B90C4807F075FF0C4B1D681DB16A
:10B940000B4B93E80700A847E37853B9237943B931
:10B95000084B1B6B9847BDE8384007F08FBE064880
:10B96000E9E738BD832A002081F40208942A0020E8
:10B97000882A0020480D03089CF4020810B5114BDA
:10B9800000225A709A781AB9DA780AB91A7912B17B
:10B9900001225A7010BDFEF7ACFB80B90A4807F0CF
:10B9A00041FF0A4B1C681CB1094B93E80700A047F4
:10B9B000084B1B6B9847BDE8104007F05FBE064878
:10B9C000EDE700BF832A0020B7F40208942A002084
:10B9D000882A0020480D0308D4F4020813B50C4C43
:10B9E000002363700B4B1B6803B1984707F046FEBA
:10B9F00023795BB101236370074C236B9847636B1A
:10BA00000193002002B0BDE81040184702B010BDFD
:10BA1000832A0020982A0020480D03082DE9F047CA
:10BA20008CB0FEF766FB434C00287AD1B4F8128044
:10BA300094F81490404EFEF75CFB054688BB6FF00F
:10BA40007F43CDE9070309F1010AE38A94F918104D
:10BA50005FFA8AFACDE901A3237C0093F3690B9383
:10BA600001270246CDE90500CDE90307DDF82CC02A
:10BA700043463846E04705230293E38A0395CDE920
:10BA80000053CDE90857CDE90655CDE90457534693
:10BA900041463846B569227CA847736DFF21384678
:10BAA0009847FEF726FB022834D100256FF07F432C
:10BAB000CDE9075309F10109E38AA26A94F9181044
:10BAC0005FFA89F9CDE90193636A0093F3690B93F7
:10BAD00001272846CDE90555CDE90357DDF82CC0EF
