:020000040800F2
:1000000000800020C52C0008A70A0008A90A0008E3
:10001000AB0A0008AD0A0008AF0A000800000000A3
:10002000000000000000000000000000B10A00080D
:10003000B30A000800000000B50A0008B70A00086B
:10004000152D0008152D0008152D0008152D000888
:10005000152D0008152D0008152D0008152D000878
:10006000152D0008152D0008152D0008152D000868
:10007000152D0008152D0008152D0008152D000858
:10008000152D0008152D0008152D0008152D000848
:1000900000000000152D0008152D0008152D000882
:1000A000152D0008152D0008152D0008152D000828
:1000B000152D0008152D0008152D0008152D000818
:1000C000152D0008152D0008152D0008152D000808
:1000D000152D0008152D0008152D0008152D0008F8
:1000E000152D0008152D0008152D0008152D0008E8
:1000F000152D00080000000000000000152D00086C
:10010000152D0008152D0008152D0008152D0008C7
:10011000152D0008152D0008152D0008152D0008B7
:10012000152D0008152D0008152D0008152D0008A7
:10013000152D0008152D000810B5054C237833B98E
:10014000044B13B10448AFF300800123237010BDAA
:1001500010000020000000006C2D000808B5034BC3
:100160001BB103490348AFF3008008BD0000000045
:10017000140000206C2D000853B94AB9002908BFAB
:1001800000281CBF4FF0FF314FF0FF3000F074B972
:10019000ADF1080C6DE904CE00F006F8DDF804E0DE
:1001A000DDE9022304B070472DE9F047089E0D46B3
:1001B00004468846002B4DD18A42944668D9B2FA4B
:1001C00082F252B101FA02F3C2F1200120FA01F1E8
:1001D0000CFA02FC41EA030894404FEA1C45210C4A
:1001E000B8FBF5FE1FFA8CF705FB1E8341EA0343BB
:1001F0000EFB07F199420BD91CEB03030EF1FF3004
:1002000080F01E81994240F21B81AEF1020E6344E0
:100210005B1AA4B2B3FBF5F005FB103344EA0344C8
:1002200000FB07F7A7420AD91CEB040400F1FF33D7
:1002300080F00881A74240F2058164440238E41B43
:1002400040EA0E4000211EB1D4400023C6E900431D
:10025000BDE8F0878B4208D9002E00F0EE80002127
:10026000C6E900050846BDE8F087B3FA83F1002926
:100270004AD1AB4202D3824200F2F980841A65EB84
:10028000030301209846002EE2D0C6E90048DFE7CC
:1002900002B9FFDEB2FA82F2002A40F09180A1EBAF
:1002A0000C054FEA1C471FFA8CFE0121B5FBF7F342
:1002B00007FB1350250C45EA00450EFB03F0A8424E
:1002C00008D91CEB050503F1FF3802D2A84200F261
:1002D000CB8043462D1AA4B2B5FBF7F007FB1055AF
:1002E00044EA05440EFB00FEA64508D91CEB0404B5
:1002F00000F1FF3502D2A64500F2BB802846A4EBF0
:100300000E0440EA03409EE7C1F120078B4022FA29
:1003100007FC4CEA030C20FA07F405FA01F31C432E
:10032000FD404FEA1C4900FA01F3B5FBF9F8200C37
:100330001FFA8CFE09FB185540EA054508FB0EF034
:10034000A84202FA01F20BD91CEB050508F1FF3AAD
:1003500080F08880A84240F28580A8F102086544B8
:100360002D1AA4B2B5FBF9F009FB105544EA054576
:1003700000FB0EFEAE4508D91CEB050500F1FF346D
:100380006CD2AE456AD90238654440EA0840A0FB09
:100390000294A5EB0E05A542C846A64656D353D0F7
:1003A0005EB1B3EB080265EB0E0505FA07F722FA1A
:1003B00001F3CD401F43C6E900750021BDE8F08779
:1003C000C2F1200320FA03F10CFA02FC25FA03F330
:1003D00095400D434FEA1C471FFA8CFEB3FBF7F123
:1003E00007FB11302B0C43EA004301FB0EF098424F
:1003F00004FA02F408D91CEB030301F1FF382FD2F1
:1004000098422DD9023963441B1AADB2B3FBF7F001
:1004100007FB103345EA034500FB0EF3AB4208D956
:100420001CEB050500F1FF3816D2AB4214D9023897
:100430006544ED1A40EA014138E73146304607E7A6
:100440008646E5E61846FAE64B45A9D2B9EB02081E
:1004500064EB0C0E0138A3E74046EAE7204694E738
:100460004146D1E7D0467BE7023B654432E7084688
:1004700009E76444023842E7704700BF70B50D4D8C
:100480000D4C641BA4100026A64209D10B4D0C4C48
:1004900002F06CFC641BA4100026A64205D170BDBE
:1004A00055F8043B98470136EEE755F8043B98476A
:1004B0000136F2E77830000878300008783000081C
:1004C0007C30000802440346934200D1704703F891
:1004D000011BF9E710B594B0002404943C22214696
:1004E00005A8FFF7EFFF23E000243EE0013C14AB3A
:1004F0001C44002304F8403C4C4904A802F01CFCB6
:1005000050B14B4904A802F017FC28B1494904A88E
:1005100002F012FC00284AD1474800F0AFF94748E2
:1005200000F0ACF94022002104A8FFF7CBFF002423
:10053000434B1B68DA6912F0080F01D008221A62D7
:1005400040F6FF7301220DF10F013D4800F0D2FF8C
:100550000028EDD1631C9BB214AA14449DF80F200F
:1005600004F8402C3F2BBFD81C46631E14AA13442A
:1005700013F8403C0D2B01D00A2BD9D1314A01ABE5
:1005800092E8030083E8030003222F4904A802F045
:10059000C2FB0028AAD003222C4904A802F0BBFB0E
:1005A0000028A3D02A4800F069F90024C0E72949AF
:1005B00004A802F0C1FB90B1274904A802F0BCFBDB
:1005C000D0B1264904A802F0B7FBF0B1244904A831
:1005D00002F0B2FB30BB234800F050F9A2E72248FA
:1005E00000F04CF9214B01221A704FF001312048E4
:1005F00000F0DEF914B010BD1E4800F03FF900F025
:1006000033FA1D4800F03AF98CE7BFF34F8F1B49CE
:10061000CA6802F4E0621A4B1343CB60BFF34F8FFA
:1006200000BFFDE70A4800F029F97BE7C82D000864
:10063000D42D0008E02D000800500008F02D00081F
:1006400078000020882D0008AC2D0008B02D00088F
:10065000B42D0008F42D00081C2E0008682E000898
:10066000742E0008842E0008002E00082C000020A4
:1006700004400008242E0008382E000800ED00E099
:100680000400FA0508B5064B1B7813B1012B03D003
:1006900008BDFFF71FFFFBE700F0BCF9F8E700BF5C
:1006A0002C00002072B6FEE700B59BB04822002166
:1006B00008A8FFF707FF0023029303930493059311
:1006C0000693079315490A6822F4C06242F4007247
:1006D0000A600A6802F4C0620192019A202208921C
:1006E000012210921193B0221292139308A801F0E4
:1006F000ADF978B94F230293002303930493059334
:1007000006930793022102A801F0DCFC20B91BB07C
:100710005DF804FBFFF7C6FFFFF7C4FF00040058B5
:1007200008B502F0A7FAFFF7BFFF00F0CDF9134BB1
:100730001B68B3F15A3F0AD0104B1B68B3F15A3F04
:1007400016D10F4800F09AF8FFF79CFFFCE70D4B1D
:100750001A680D4B1340B3F1005FEDD1074B5B6896
:10076000B3F1013FE8D000F007F900F00FF9E3E73B
:100770004FF05A31014800F01BF9E2E70040000851
:10078000902E0008006000080000FE2F10B584467F
:100790000378302B03D000242046234654E04378CE
:1007A000782B35D0582B36D00024204623464BE0FA
:1007B0002401A3F1300E5FFA8EFEBEF1090F21D89D
:1007C000303B1C4401300A2815D81CF8003093B186
:1007D000A3F14102D2B2052AEAD9A3F1610E5FFA70
:1007E0008EFEBEF1050FE3D9A3F1300E5FFA8EFE47
:1007F000BEF1090FDCD91CF80030002B3BD10C6096
:10080000012010BD052A01D8373BDAE7573BD8E76E
:1008100000240220D7E700240220D4E76B2A1ED050
:100820004B2A1CD06D2A20D04D2A1ED0A2F1300EAA
:100830005FFA8EFEBEF1090FE3D804EB840402EBED
:100840004402A2F1300401330A2BDAD80028D8D1AF
:100850001CF80320002AE1D10C600120F3E7002BF3
:10086000E0D0A4020C600120EDE7002BDED02405CF
:100870000C600120E7E70020C3E7000008B501464F
:10088000002201E0013292B28B5C002BFAD164238A
:10089000014800F0C0FD08BD7800002000B583B01D
:1008A0008DF80700094BD3F88430A02B09D06423BE
:1008B00001220DF10701054800F0ADFD03B05DF820
:1008C00004FB024B2022C3F88420F0E778000020CC
:1008D00000F17840C00A704710B584B00446002388
:1008E000039301F095FE0E4B4FF400421A6120462F
:1008F000FFF7EEFFC4F1006303F55C33DB0A02226D
:1009000000920190029303A9684601F065FF28B99F
:10091000002401F095FE204604B010BD0124F8E744
:1009200000400058F0B583B005460C46174601F06C
:100930006FFE002602E0083508340236BE4215D2AA
:100940006B462068616803C3DDE900232946012066
:1009500001F0BAFE0028F0D128686A680099019B6E
:100960009A4208BF8842E6D0032400E0002401F048
:1009700067FE204603B0F0BD08B5034800F0F0FA6A
:1009800002F029F908BD00BF7800002008B5054A2B
:10099000536805490B6005490B60126882F30888AB
:1009A000984708BD00600008300000203400002097
:1009B00070B588B004460D4600230793134ED6E960
:1009C0000023CDE9042301F023FE114B4FF4004234
:1009D0001A613046FFF77CFF022301930290012346
:1009E000039307A901A801F0F7FE50B9B4420AD059
:1009F0000595DDE904230549012001F065FE01F0BC
:100A00001FFE08B070BD0495F3E700BF004000086A
:100A10000040005800B583B00023019301A800F006
:100A2000ABF910B103B05DF804FB4FF05A310A483E
:100A3000FFF7BEFF4FF002310848FFF7B9FF084B40
:100A40001A68084B1340B3F1005FEBD1FFF794FF36
:100A5000FFF79CFFE6E700BF0040000804400008E5
:100A6000006000080000FE2F08B54FF05A310A4818
:100A7000FFF79EFF094B1A68094B1340B3F1005F63
:100A800000D008BD044B5B68B3F1013FF9D0FFF71C
:100A900073FFFFF77BFFF4E70040000800600008E9
:100AA0000000FE2F7047FEE7FEE7FEE7FEE7FEE7E9
:100AB00070477047704708B502F0F2F802F0FCF892
:100AC00000F032FA08BD704708B51748174B0360AD
:100AD0004FF4E133436000238360C36003610C2261
:100AE00042618361C36103624362836200F0D2FDAD
:100AF00070B900210C4800F046FE60B900210A4898
:100B000000F066FE50B9084800F01EFE48B908BD66
:100B1000FFF7C8FDEDE7FFF7C5FDEFE7FFF7C2FD03
:100B2000F1E7FFF7BFFDF2E7780000200044004046
:100B300010B596B0044600211191129113911491B1
:100B40001591382203A8FFF7BDFC2268194B9A4281
:100B500001D016B010BD022303934FF44023059338
:100B600003A801F0E1FB10BB4FF0B0439A6D42F4D3
:100B700000329A659A6D02F400320292029ADA6C9F
:100B800042F00102DA64DB6C03F001030193019B84
:100B90000C2311930223129300231393149307231E
:100BA000159311A94FF0904001F056FED1E7FFF7E1
:100BB00079FDD9E70044004008B50268074B9A4226
:100BC00000D008BD4FF0B042936D23F4003393651D
:100BD0000C214FF0904001F011FFF2E7004400407B
:100BE000BFF34F8F0549CA6802F4E062044B134318
:100BF000CB60BFF34F8F00BFFDE700BF00ED00E00B
:100C00000400FA0541F4807106E080F4815080F020
:100C1000010011F4803F09D14000490011F4807FA8
:100C200000D0013010F4803FF3D0EEE780B270477F
:100C300038B504464518002004E014F8011B80B2C2
:100C4000FFF7E0FFAC42F8D3002180B2FFF7DAFFF4
:100C50000021FFF7D7FF38BD2DE9F04182B00646ED
:100C60000C46154600230B60134601220DF10701C7
:100C7000404800F03FFC8046002872D19DF80710E4
:100C8000182919D84BB2002B48D0013917290FD891
:100C9000DFE801F048310E0C0E0E0E0E0E0E0E0E99
:100CA0000E0E0E0E0E0E0E0E0E0E0E3400270AE065
:100CB0004FF00108002706E0412935D0612937D1DE
:100CC0004FF0020800279DF8073033707F2F49D975
:100CD0002B463A1DB11C274800F00CFC804600282A
:100CE00045D1B278F378DB43DBB29A422AD04FF099
:100CF0000108002736E04FF48067E4E72B46012225
:100D00000DF107011B4800F0F5FBA8B99DF807306D
:100D1000182B15D04FF001080027D4E74FF0010839
:100D20000027D0E78027CEE74FF002080027CAE768
:100D30004FF001080027C6E74FF001080027C2E77F
:100D40000227C0E7F3191A795D7905EB02253946C8
:100D5000301DFFF76DFFA84204D04FF001080027B7
:100D600000E000272760404602B0BDE8F081002780
:100D7000F8E700BF780000202DE9F04F89B001901E
:100D80004FF000084646DFF888B1C1464546C246E6
:100D9000BAF1000F40F0B880002E40F0B5805D4BF6
:100DA00000221A70574685E0079D3DB1022D0AD1F9
:100DB0000620FFF773FD3D4602267BE00620FFF785
:100DC0006DFD012776E0544B9A78524B1B789A427E
:100DD0000BD1002B53D1504B1B79CBB90620FFF719
:100DE0005DFD3D460127BA4664E01520FFF756FD3C
:100DF0003D465FE00133494881540132197809B119
:100E00003F2AF7D945490020885401333A4608E083
:100E10003A46434BF2E7013308A8104400F8181C87
:100E200001321978202901D00F2AF4D908AB1A44CD
:100E3000002302F8183C06A902A8FFF7A7FC069AAF
:100E4000384B9A4213D83248FFF746FD069B019A69
:100E500013600620FFF722FD4320FFF71FFD2D4AF8
:100E60001378013313703D464FF0010922E018203A
:100E7000FFF714FD1820FFF711FD0526E3E7AA0888
:100E800027495846FFF74EFD28B9079B9B4406208B
:100E9000FFF704FDE3E71820FFF700FD1820FFF738
:100EA000FDFC0426DBE71820FFF7F8FC1820FFF70D
:100EB000F5FC2646002F7FF46BAF002E7FF468AF61
:100EC0004FF4FA7207A91448FFF7C6FE044600283B
:100ED0003FF46AAF0228E6D0B9F1000F00D0013527
:100EE000052D07D91820FFF7D9FC1820FFF7D6FCED
:100EF0000226DFE74320FFF7D1FC08F10108B8F133
:100F00003B0FD7D9FFF76CFE304609B0BDE8F08F34
:100F1000006000080E0500200801002038000020B5
:100F20000C0100200110030008B50A4BA3FB0023AD
:100F30001B0B43F6982202FB130343B9064B1B78A5
:100F40002BB1064A1278934202D0044A137008BDAE
:100F5000FFF746FE73B2E7450E0500200F0500209F
:100F6000E8B138B505462423C0F884300268136818
:100F700023F001031360036800241C6003685C60B5
:100F800003689C60FFF718FEC5F88C40C5F88440E4
:100F9000C5F88840EC6685F88040204638BD0120C1
:100FA0007047000070B50446016883680269134306
:100FB00042691343C269134308689D4A02401343C0
:100FC0000B602268536823F44053E1680B4353607D
:100FD000A1692268974B9A4201D0236A194393680A
:100FE00023F06E4323F430630B4393602268D36A8B
:100FF00023F00F03616A0B43D36223688E4A934246
:101000001CD08E4A934231D08A4A93424BD0102250
:1010100088498B4268D0E069B0F5004F00F0A580A8
:10102000082A00F21F81DFE812F0D300F500D1009A
:101030001D01F8001D011D011D01FB004FF0B04214
:10104000D2F8882002F0030242F44032A2F5403286
:10105000032A09D8DFE802F002043C060122D7E7A0
:101060000422D5E70822D3E71022D1E74FF0B0429F
:10107000D2F8882002F00C0242F44022A2F540226D
:101080000C2A0ED8DFE802F0070D0D0D090D0D0D2D
:10109000260D0D0D0B000022BAE70422B8E7082246
:1010A000B6E71022B4E74FF0B042D2F8882002F43D
:1010B0004062B2F5006F0FD005D87AB1B2F5806FFB
:1010C0000ED10422A4E7B2F5406F0BD108229FE7AE
:1010D00002229DE702229BE7022299E7002297E77E
:1010E000102295E7102293E7082A00F29C80DFE89F
:1010F00002F0089A3A9A379A9A9A05004FF40040FB
:1011000004E001F0F1F8002800F08F80626A4C4B97
:1011100033F81220B0FBF2F3656805EB4501994204
:1011200000F29480B3EB053F00F292800026334634
:101130003146FFF721F8090241EA106100026B080D
:10114000C0182A46334641F10001FFF715F8A0F513
:1011500040723C4B9A427DD82368D860304650E0BC
:1011600000F0DCFBCFE73848D0E7082A74D8DFE886
:1011700002F0072705732A7373730B00324803E0EC
:1011800001F0B2F8002869D0626A2D4B33F81230B2
:10119000B0FBF3F06268530803EB4000B0FBF2F0E1
:1011A00080B2A0F110024FF6EF739A4258D820F0A7
:1011B0000F03C0F3420018432368D860002020E0EA
:1011C00001F0A2F8DEE700F0A9FBDBE71E4803E030
:1011D00001F08AF8002847D0626A194B33F81230C0
:1011E000B0FBF3F0636800EB5300B0FBF3F080B2A8
:1011F000A0F110024FF6EF739A4237D82368D860F7
:1012000000200123A4F86A30A4F868300023236783
:10121000636770BD01F078F8DCE700F07FFBD9E789
:101220004FF40040D8E70120EBE70020E9E700BFDA
:10123000F369FFCF008000400038014000440040C7
:10124000402F0008FFFC0F000024F4000120D8E725
:101250000120D6E70120D4E70120D2E70020D0E723
:101260000120CEE70120CCE70020CAE70120C8E733
:10127000836A13F0010F06D00268536823F4003329
:10128000C16A0B435360836A13F0020F06D00268F1
:10129000536823F48033016B0B435360836A13F06C
:1012A000040F06D00268536823F48023416B0B437C
:1012B0005360836A13F0080F06D00268536823F462
:1012C0000043816B0B435360836A13F0100F06D009
:1012D0000268936823F48053C16B0B439360836A65
:1012E00013F0200F06D00268936823F40053016CBA
:1012F0000B439360836A13F0400F0AD0026853686F
:1013000023F48013416C0B435360436CB3F5801F8F
:101310000BD0836A13F0800F06D00268536823F461
:101320000023C16C0B43536070470268536823F479
:10133000C003816C0B435360EBE72DE9F84305468E
:101340000F4616469946DDF820802C68E46937EA96
:1013500004030CBF4FF0010C4FF0000CB44557D103
:10136000B8F1FF3FF1D001F0A7FCA0EB0900404528
:101370002FD8B8F1000F2CD02B681A6812F0040F88
:10138000E3D0DA6912F4006FDFD04FF400621A6222
:101390002A6852E8003F23F4D07342E80031002964
:1013A000F6D12A6802F1080353E8003F23F0010355
:1013B000083242E800310029F3D12023C5F88430F7
:1013C000C5F88830C5F88C30002385F880300320BC
:1013D0001FE02A6852E8003F23F4D07342E800314E
:1013E0000029F6D12A6802F1080353E8003F23F0F0
:1013F0000103083242E800310029F3D12023C5F867
:101400008430C5F88830002385F88030032000E060
:101410000020BDE8F8832DE9F04182B01E46D0F8E7
:101420008430202B58D104460D469046002957D0D1
:10143000002A57D090F88030012B55D0012380F836
:1014400080300023C0F88C302123C0F8843001F0B4
:1014500033FC0746A4F85480A4F85680A368B3F57B
:10146000805F05D04FF00008002384F8803014E03E
:10147000236913B14FF00008F6E7A8460025F3E70B
:1014800038F8023B2268C3F308039362B4F856208D
:1014900092B2013A92B2A4F85620B4F856309BB2F8
:1014A00073B100963B46002280212046FFF745FF9E
:1014B000E0B9002DE4D015F8012B23689A62E5E726
:1014C00000963B46002240212046FFF736FF78B9C0
:1014D0002023C4F8843000E0022002B0BDE8F0818F
:1014E0000120FAE70120F8E70220F6E70320F4E7FD
:1014F0000320F2E72DE9F04383B01E46D0F8883090
:10150000202B40F0818004460D46904600297FD074
:10151000002A7FD090F88030012B7DD0012380F805
:1015200080300023C0F88C302222C0F88820C366A7
:1015300001F0C2FB0746A4F85C80A4F85E80A368B3
:10154000B3F5805F06D0A3B9226972B9FF22A4F86F
:10155000602014E0226922B940F2FF12A4F8602052
:101560000DE0FF22A4F8602009E07F22A4F86020AB
:1015700005E0B3F1805F0DD00022A4F86020B4F83C
:101580006080B3F5805F0FD04FF00009002384F82E
:1015900080301EE022691AB97F22A4F86020EEE7AD
:1015A0003F22A4F86020EAE7236913B14FF0000955
:1015B000ECE7A9460025E9E723685B6A08EA03032C
:1015C00029F8023BB4F85E2092B2013A92B2A4F834
:1015D0005E20B4F85E309BB28BB100963B46002291
:1015E00020212046FFF7A9FEC0B9002DE4D02368D2
:1015F0005A6A5FFA88F3134005F8013BE2E72023BB
:10160000C4F88830002000E0022003B0BDE8F08379
:101610000120FAE70120F8E70220F6E70320F4E7CB
:1016200030B583B004460023C0F88C3001F044FB91
:1016300005462268126812F0080F0FD123681B6854
:1016400013F0040F18D12023C4F88430C4F8883074
:101650000020E06684F8800003B030BD6FF07E4368
:101660000093034600224FF400112046FFF765FE69
:101670000028E3D00320EFE76FF07E4300932B4672
:1016800000224FF480012046FFF757FE0028DAD0F1
:101690000320E1E778B310B50446D0F884300BB3EB
:1016A0002423C4F884302268136823F001031360F4
:1016B0002046FFF777FC012813D0A36ABBB9226844
:1016C000536823F4904353602268936823F02A03FD
:1016D00093602268136843F0010313602046FFF70C
:1016E0009FFF10BD80F88030FFF722FAD8E7204630
:1016F000FFF7BEFDE3E7012070470000436E2BB902
:101700000123A0F86A30A0F86830704730B403684D
:101710009A68C2F342629968490F094D6B5CDB001D
:10172000084C615C93FBF1F3A0F86A30AB5CDB0022
:10173000A25C93FBF2F3A0F8683030BC704700BFA6
:10174000602F0008582F000890F88030012B18D027
:10175000012380F880302423C0F8843003681A689D
:10176000196821F00101196022F00052002343663C
:1017700001680A602022C0F8842080F88030184672
:1017800070470220704738B590F88030012B1DD08B
:101790000446012380F880302423C0F88430036895
:1017A0001D681A6822F001021A600268936823F02B
:1017B000604319439160FFF7A1FF23681D60202358
:1017C000C4F88430002084F8800038BD0220FCE793
:1017D00038B590F88030012B1DD00446012380F8E5
:1017E00080302423C0F8843003681D681A6822F012
:1017F00001021A600268936823F0606319439160E4
:10180000FFF77CFF23681D602023C4F8843000208C
:1018100084F8800038BD0220FCE7000030B589B0B4
:1018200004468C462A4B93E803000690ADF81C1042
:1018300003F1080292E803000490ADF8141001AD22
:10184000103393E8070085E80700BCF5007F07D058
:10185000002314E008AA02EB830353F81C5C1EE08B
:101860000023022B08D808AA02EB430232F8082C06
:10187000A242EFD20133F4E7002510E00133022B3E
:101880000CD808AA02EB430232F8102CA242F5D37E
:1018900008AA02EB830353F81C5C00E000250D4A04
:1018A000136823F007032B43136001F005FA044685
:1018B000084B1B6803F00703AB4206D001F0FCF9AC
:1018C000001B0228F4D9032000E0002009B030BD3D
:1018D000902D00080040005810B5C0F303100C4BC9
:1018E00053F820404FF0B043D3F8083103F00F0312
:1018F000084A52F82300B4FBF0F401F005F9014660
:101900000548A0FB0430800CFFF788FF10BD00BF26
:10191000002F0008A02E000883DE1B434FF0B043C9
:101920009968DB6803F0030311F00C010AD00C295D
:1019300006D0042947D008293BD00022104626E0D3
:10194000012BF6D14FF0B0431B6813F008030DD004
:101950004FF0B0431B6813F0080324D14FF0B0429E
:10196000D2F894202E4A52F823200EE04FF0B042D5
:10197000126812F0080F12D14FF0B043D3F8943030
:10198000C3F30323264A52F82320D1B100204FF09D
:10199000B0439B6803F00C030C2B1AD070474FF038
:1019A000B0421268EEE74FF0B0431B68C3F3031375
:1019B000D8E74FF0B0431A6812F4801206D11948E4
:1019C000E5E71046E3E700221748E0E70022164863
:1019D000DDE74FF0B043DB6803F00303022B09D0CF
:1019E000032B08D14FF0B0431B6813F4801F15D1AF
:1019F0000C4A00E00C4A4FF0B043D868C0F3062010
:101A000000FB02F2D868C0F302100130B2FBF0F222
:101A1000D868400F0130B2FBF0F0BFE7024AEAE7B6
:101A2000002F00080048E8010024F40008B5FFF783
:101A300075FF4FF0B0439B68C3F30313024A52F89B
:101A40002330B0FBF3F008BDA02E0008002800F002
:101A50001983F8B504464FF0B0439D6805F00C05B6
:101A6000DE6806F00306036813F0200F00F08F8095
:101A7000EDB10C2D19D0236A002B00F0BC804FF083
:101A8000B042136843F00103136001F015F90746F3
:101A90004FF0B0431B6813F0020F65D101F00CF951
:101AA000C01B0228F4D90320F9E2012EE3D14FF044
:101AB000B0431B6813F0020F03D0236A002B00F021
:101AC000E382A06A4FF0B0431B6813F0080F29D0DF
:101AD0004FF0B0431B6803F0F00398422AD9FFF798
:101AE000FBFE002840F0D2824FF0B0431A6842F06B
:101AF00008021A601A6822F0F002A16A0A431A600A
:101B0000616A5A6822F47F4242EA01225A60FFF772
:101B10008DFFB04B1860B04B186801F083F80028B7
:101B200035D0BCE24FF0B043D3F894301B0903F03A
:101B3000F003D2E74FF0B0431A6842F008021A608F
:101B40001A6822F0F002A16A0A431A60616A5A68B0
:101B500022F47F4242EA01225A60A06AFFF7BCFEEB
:101B60000028D4D001209AE24FF0B0431A6842F026
:101B700008021A601A6822F0F002A16A0A431A6089
:101B8000616A5A6822F47F4242EA01225A6023685D
:101B900013F0010F51D0082D45D00C2D41D04FF03E
:101BA000B042136823F48013A1680B431360636889
:101BB000B3F5803F63D0B3F5041F65D04FF0B04359
:101BC0001A6822F480321A601A6822F400121A602D
:101BD0006368002B63D001F06FF807464FF0B04305
:101BE0001B6813F4003F28D101F066F8C01B64287D
:101BF000F4D9032053E24FF0B042136823F00103FD
:101C0000136001F059F807464FF0B0431B6813F01A
:101C1000020FBCD001F050F8C01B0228F4D90320F9
:101C20003DE2032EBBD14FF0B0431B6813F4003FDD
:101C300003D06368002B00F02B82236813F0020F9F
:101C400052D0042D3DD00C2D39D02369002B00F04B
:101C500091804FF0B042136843F48073136001F039
:101C60002BF806464FF0B0431B6813F4806F77D112
:101C700001F022F8801B0228F4D903200FE2136838
:101C800043F480331360A3E74FF0B0431A6842F483
:101C900000121A601A6842F480321A6098E701F064
:101CA0000BF807464FF0B0431B6813F4003FC4D055
:101CB00001F002F8C01B6428F4D90320EFE1022EE2
:101CC000C3D14FF0B0431B6813F4806F03D0236976
:101CD000002B00F0DF8161694FF0B042536823F0C0
:101CE000FE4343EA01635360236813F0080F00F0DA
:101CF0008E80A369002B71D04FF0B043D3F894309D
:101D0000E16903F01002914211D003F00302022AAC
:101D100000F0C28113F0010F42D14FF0B042D2F86F
:101D2000943023F01003E1690B43C2F894304FF074
:101D3000B042D2F8943043F00103C2F8943000F07E
:101D4000BBFF06464FF0B043D3F8943013F0020FB8
:101D50005DD100F0B1FF801B1128F3D903209EE173
:101D600061694FF0B042536823F0FE4343EA0163D8
:101D70005360B9E74FF0B042136823F480731360E7
:101D800000F09AFF06464FF0B0431B6813F4806FD3
:101D9000AAD000F091FF801B0228F4D903207EE135
:101DA0004FF0B042D2F8943023F00103C2F89430DF
:101DB00000F082FF06464FF0B043D3F8943013F0A2
:101DC000020FAAD000F078FF801B1128F3D903205E
:101DD00065E100BF00000020080000204FF0B04285
:101DE000D2F8943023F00103C2F8943000F064FF7D
:101DF00006464FF0B043D3F8943013F0020F06D0EC
:101E000000F05AFF801B1128F3D9032047E1236813
:101E100013F0040F00F0B180A84B1B6813F4807F0F
:101E200010D100F069FE00F047FF0646A34B1B6887
:101E300013F4807F06D100F03FFF801B0228F5D904
:101E400003202CE1E368002B61D0852B01D0052B0A
:101E500007D14FF0B042D2F8903043F00403C2F8FB
:101E6000903000F029FF06464FF0B042D2F8903093
:101E700043F00103C2F890304FF0B043D3F89030F4
:101E800013F0020F08D100F017FF801B41F28833D6
:101E90009842F1D9032002E1E368812B01D0852B20
:101EA0001AD100F009FF06464FF0B042D2F8903048
:101EB00043F08003C2F890304FF0B043D3F8903035
:101EC00013F4006F59D100F0F7FE801B41F2883304
:101ED0009842F1D90320E2E000F0EEFE06464FF012
:101EE000B042D2F8903023F08003C2F890304FF027
:101EF000B043D3F8903013F4006F3ED000F0DCFE16
:101F0000801B41F288339842F1D90320C7E000F0EA
:101F1000D3FE06464FF0B042D2F8903023F0800353
:101F2000C2F890304FF0B043D3F8903013F4006F04
:101F300008D000F0C1FE801B41F288339842F1D9ED
:101F40000320ACE000F0B8FE06464FF0B042D2F8F5
:101F5000903023F00103C2F890304FF0B043D3F833
:101F6000903013F0020F08D000F0A6FE801B41F263
:101F700088339842F1D9032091E0E36A002B00F006
:101F80008D800C2D62D0022B1FD04FF0B0431A6809
:101F900022F080721A60DA6822F00302DA60DA68EE
:101FA00022F0885222F48032DA6000F085FE044686
:101FB0004FF0B0431B6813F0007F73D000F07CFE3D
:101FC000001B0A28F4D9032069E04FF0B0421368DF
:101FD00023F08073136000F06FFE05464FF0B043AE
:101FE0001B6813F0007F2AD14FF0B042D368344908
:101FF0001940236B606B0343A06B43EA0023E06B43
:102000000343206C0343606C03430B43D3601368AA
:1020100043F080731360D36843F08053D36000F0C3
:102020004BFE04464FF0B0431B6813F0007F37D1DE
:1020300000F042FE001B0A28F4D903202FE000F034
:102040003BFE401B0A28C9D9032028E0012B2BD0D6
:102050004FF0B043DB6803F00301226B914225D1BE
:1020600003F07002616B8A4222D103F4FE42A16B3D
:10207000B2EB012F1ED103F06043626C93421BD17F
:1020800000200CE001207047012008E0012006E05C
:10209000012004E0012002E0012000E00020F8BD62
:1020A0000020FCE70020FAE70120F8E70120F6E72E
:1020B0000120F4E70120F2E70120F0E700040058D6
:1020C0008C80C111002800F0048170B50C460546D3
:1020D000824B1B6803F007038B4227D32B6813F056
:1020E000020F39D12B6813F0400F4DD12B6813F03C
:1020F000040F65D12B6813F0080F79D12B6813F00A
:10210000010F00F0C1806B68022B00F08B80032B65
:1021100000F09080002B40F095804FF0B0421268A4
:1021200012F0020F40F094800120D1E06B4A136856
:1021300023F007030B43136000F0BEFD0646674B18
:102140001B6803F00703A342C8D000F0B5FD801B55
:102150000228F4D90320BBE0AB684FF0B0418A6895
:1021600022F0F00213438B6000F0A6FD06464FF00C
:10217000B0439B6813F4803FB4D100F09DFD801BF9
:102180000228F4D90320A3E069694FF0B042D2F8E5
:10219000083123F00F0343EA1113C2F8083100F0AD
:1021A0008BFD06464FF0B043D3F8083113F4803F5F
:1021B0009CD100F081FD801B0228F3D9032087E029
:1021C000EB684FF0B0418A6822F4E06213438B6001
:1021D00000F072FD06464FF0B0439B6813F4003FD9
:1021E00088D100F069FD801B0228F4D903206FE03C
:1021F00029694FF0B042936823F4605343EAC10366
:10220000936000F059FD06464FF0B0439B6813F40D
:10221000802F7FF473AF00F04FFD801B0228F3D9AD
:10222000032055E04FF0B042126812F4003F0FD186
:1022300001204DE04FF0B042126812F0007F07D14C
:10224000012045E04FF0B042126812F4806F42D096
:102250004FF0B0418A6822F0030213438B6000F014
:102260002BFD06464FF0B0439B6803F00C036A68F1
:10227000B3EB820F08D000F01FFD801B41F28833C2
:102280009842EFD9032023E0144B1B6803F00703A7
:10229000A34215D9114A136823F00703234313609F
:1022A00000F00AFD05460D4B1B6803F00703A3422F
:1022B00006D000F001FD401B0228F4D9032007E0FE
:1022C000FFF7B4FB064B1860064B186800F0AAFC39
:1022D00070BD012070470120FAE700BF00400058A0
:1022E000000000200800002008B5FFF79FFB4FF01A
:1022F000B0439B68C3F30223024A52F82330D8400C
:1023000008BD00BFE02E000808B5FFF78FFB4FF0B7
:10231000B0439B68C3F3C223024A52F82330D8402B
:1023200008BD00BFE02E000870B50446036813F432
:10233000803F40F0AB800025236813F0010F0AD0E6
:1023400062684FF0B041D1F8883023EA124392B26C
:102350001343C1F88830236813F0020F0AD0A26833
:102360004FF0B041D1F8883023EA124392B21343C0
:10237000C1F88830236813F0200F09D023694FF08B
:10238000B041D1F8882022F440621343C1F888306C
:10239000236813F4007F0CD0206A4FF0B041D1F8CD
:1023A0008830020C120423EA020343EA0043C1F816
:1023B0008830236813F4806F0CD0606A4FF0B0410E
:1023C000D1F88830020C120423EA020343EA0043E6
:1023D000C1F88830236813F4006F0CD0A06A4FF066
:1023E000B041D1F88830020C120423EA020343EA18
:1023F0000043C1F88830236813F0400F40F09E80FE
:10240000236813F0800F40F0AA80236813F4807FC4
:1024100040F0B680236813F0100F0ED0E3684FF041
:10242000B041D1F8882022F440721343C1F88830BB
:10243000E368B3F5807F00F0B480236813F4004FA5
:102440000FD0236B4FF0B041D1F8882022F04042EA
:102450001343C1F88830236B1BB9CB6843F08073FA
:10246000CB60236813F4804F0ED0E36A4FF0B04185
:10247000D1F8882022F040521343C1F88830E36A33
:10248000B3F1005F00F09280284670BD00F034FB8D
:1024900000F012FC0546484B1B6813F4807F06D100
:1024A00000F00AFC401B0228F5D9032500E00025B6
:1024B000002D7FF441AF4FF0B043D3F8903003F4D8
:1024C0004073626B9A4224D04FF0B043D3F890200F
:1024D00022F44072D3F8901041F48031C3F8901088
:1024E000D3F8901021F48031C3F89010C3F89020F5
:1024F00012F0020F0FD1002D7FF41EAF636B4FF06F
:10250000B041D1F8902022F440721343C1F89030CA
:1025100012E70022ECE700F0CFFB06464FF0B04395
:10252000D3F8903013F0020FE5D100F0C5FB801B0B
:1025300041F288339842F1D90325DCE763694FF013
:10254000B040D0F88820190901F47F2122EA010265
:102550001B0103F47F231343C0F8883050E7A369BD
:102560004FF0B040D0F88820190901F47F2122EA09
:1025700001021B0103F47F231343C0F8883044E7B2
:10258000E3694FF0B040D0F88820190901F47F21A9
:1025900022EA01021B0103F47F231343C0F88830B1
:1025A00038E7CB6843F08073CB6046E7CB6843F4F1
:1025B0008033CB6068E700BF0004005810B4054CBE
:1025C000616941F0010161610260BFF36F8F436097
:1025D00010BC7047004000580C4A536943F48023F4
:1025E0005361EFF3108C72B6402351F8042B40F87E
:1025F000042B013B13F0FF03F7D1044B1B6913F4C9
:10260000803FFAD18CF31088704700BF004000581B
:10261000094B5B69002B01DB00207047064B074A22
:102620009A6002F188329A605B69002B01DB00201E
:1026300070470120704700BF0040005823016745E4
:10264000054B5A6942F000425A615B69002B01DB7D
:1026500001207047002070470040005838B50546FB
:1026600000F02AFB0446164B1B6913F4803F06D08A
:1026700000F022FB001BA842F5D3032038BD104B0D
:102680001B6913F0010F02D00D4A012111614CF2B8
:10269000FA32134001D00A4A13615BB9084B1B6937
:1026A00013F4802F0AD000F007FB001BA842F5D3DB
:1026B0000320E3E7034A53600120DFE70020DDE762
:1026C0000040005810050020F8B51F46154B1B7838
:1026D000012B25D004460D461646124B01221A70D6
:1026E00000225A604FF47A70FFF7B8FF70B9012CDE
:1026F00010D031462846FFF76FFF4FF47A70FFF78E
:10270000ADFF094A536923EA04045461054B0022D2
:102710001A70F8BD32463B462846FFF74FFFECE7FC
:102720000220F6E71005002000400058034A5369D4
:1027300043F4803343F00403536170470040005872
:10274000184B1B6803F40073012B06D0154B1B6854
:1027500003F48063012B12D07047124B1A6822F4E5
:1027600000721A601A6842F400621A601A6822F451
:1027700000621A601A6842F400721A60E6E7094BB8
:102780001A6822F480621A601A6842F480521A6051
:102790001A6822F480521A601A6842F480621A6041
:1027A000DAE700BF00400058034A536923F47E7300
:1027B00023F002035361704700400058054A5369F3
:1027C00023F47E7343EAC00040F4803040F00200FE
:1027D0005061704700400058F8B51E4B1B78012B24
:1027E00035D005460F461B4B01221A7000225A6055
:1027F0004FF47A70FFF732FF064618BB2B68042BA4
:1028000013D04FF0FF333B606C686B68AA681344C9
:10281000A34213D92046FFF7D1FF4FF47A70FFF798
:102820001DFF064648B90134EFE7FFF77FFF4FF47D
:102830007A70FFF713FF064602E03C60FFF7B4FF33
:10284000FFF77EFF034B00221A703046F8BD0226C8
:10285000FBE700BF1005002070B5002369E0856824
:102860005E000324B44025EA0405CC68B4402C4340
:102870008460446824EA0C0C4C68C4F300149C4047
:1028800044EA0C04446065E0DD08083550F8256032
:1028900003F007044FEA840C0F2404FA0CF426EA30
:1028A000040E0C6904FA0CF444EA0E0440F82540C6
:1028B00067E0022400E0002404FA0EF42C430CF13B
:1028C000020C4B4D45F82C404A4CD4F88050D44370
:1028D00025EA0206D1F804C01CF4803F01D042EA88
:1028E0000506444DC5F88060D5F8845004EA050615
:1028F000D1F804C01CF4003F01D042EA05063D4D6A
:10290000C5F884602D6804EA0506D1F804C01CF4FB
:10291000801F01D042EA0506364D2E606D682C40BE
:102920004E6816F4001F01D042EA0504314A546093
:1029300001330A6832FA03F458D04FF0010C0CFA54
:1029400003FC1CEA0202F3D04C6804F00304013CCF
:10295000012C84D94C6804F00304032C0CD0C46807
:102960005D004FF0030C0CFA05FC24EA0C0C8C689B
:10297000AC4044EA0C04C4604C6804F00304022C2C
:1029800082D004684FEA430E4FF0030C0CFA0EFCA1
:1029900024EA0C0C4C6804F0030404FA0EF444EA34
:1029A0000C0404604C6814F4403FC1D04FEA930C0F
:1029B0000CF102050E4C54F8255003F003044FEAC5
:1029C000840E072404FA0EF425EA0405B0F1904FB2
:1029D0003FF471AF084CA04206D004F58064A042D9
:1029E0003FF467AF072467E7012465E770BD00BFC8
:1029F000000001400008005800040048002331FA9C
:102A000003F271D0F0B52EE0022500E0002505FAB2
:102A10000CFCA44549D004685D004FF0030C0CFA8F
:102A200005FC44EA0C0404604FEAD30E0EF1080ED4
:102A300050F82E4003F00705AE000F25B54024EAFC
:102A4000050440F82E40846824EA0C04846044683D
:102A500024EA02024260C26822EA0C02C260013328
:102A600031FA03F23FD001229A4012EA0107F6D070
:102A70009E08B51C1D4C54F8254003F0030C4FEA8A
:102A80008C0C4FF0070E0EFA0CFE0EEA0404B0F1A7
:102A9000904FBBD0164DA84205D005F58065A842E1
:102AA000B2D00725B3E70125B1E7124CD4F8805026
:102AB00025EA0705C4F88050D4F8845025EA0705B4
:102AC000C4F88450256825EA07052560656825EA6D
:102AD00007076760054D023655F8264024EA0E04C4
:102AE00045F8264097E7F0BD704700BF0000014061
:102AF0000004004800080058024A136843F4807339
:102B00001360704700040058024B186800F4C0605E
:102B1000704700BF00040058074AD36823F4E063FD
:102B20001B041B0C000200F4E060034343F0BF638E
:102B300043F40033D360704700ED00E000B5194B5B
:102B4000DB68C3F30223C3F1070CBCF1040F28BFF9
:102B50004FF0040C03F1040EBEF1060F18D9033B2D
:102B60004FF0FF3E0EFA0CFC21EA0C0199400EFAE0
:102B700003F322EA0303194300280BDB0901C9B25E
:102B800000F1604000F5614080F800135DF804FB3F
:102B90000023E5E700F00F000901C9B2024B195408
:102BA000F4E700BF00ED00E014ED00E00138B0F103
:102BB000807F0BD24FF0E0235861054AF02182F864
:102BC00023100020986107221A6170470120704786
:102BD00000ED00E0704710B54FF0B0439A6B4FF036
:102BE000FF329A63D96BDA63996B00249C63D96BCB
:102BF000DC63196C1A64196C1C64596C5A64596C46
:102C00005C64996A9A62996A9C62D96ADA62D96A42
:102C1000DC62196B1A631A6B1C63FFF7DBFF20463B
:102C200010BD0000114B1B780BB90120704710B587
:102C30000446FEF7FBFE0D4B1A784FF47A73B3FB94
:102C4000F2F3B0FBF3F0FFF7B1FF68B90F2C01D935
:102C500001200AE0002221464FF0FF30FFF76EFF0F
:102C6000034B1C60002000E0012010BD0400002088
:102C70000800002010B50320FFF74EFFFEF7D6FE38
:102C8000064B18600F20FFF7CDFF10B1012420463E
:102C900010BD0446FDF706FFF9E700BF0000002065
:102CA000034B1B78034A11680B441360704700BF45
:102CB0000400002028050020014B1868704700BF61
:102CC000280500200D488546FDF7FDFE0C480D49FE
:102CD0000D4A002302E0D458C4500433C4188C4277
:102CE000F9D30A4A0A4C002301E013600432A242DD
:102CF000FBD3FDF7C3FBFDF713FDFEE700800020CB
:102D000000000020100000202050000810000020CB
:102D100030050020FEE710B501390244904201D190
:102D2000002005E0037811F8014FA34201D0181BE1
:102D300010BD0130F2E7000030B50B4D044614F829
:102D4000013B5A5D02F00302012A11F8012BA85C35
:102D500000F0030008BF2033012808BF2032981A72
:102D600001D1002AEBD130BD692F0008F8B500BFB2
:102D7000F8BC08BC9E467047F8B500BFF8BC08BC5C
:102D80009E46704700000000AC2D0008B02D0008E2
:102D9000120024003000000006000C0010000000AB
:102DA00000000000010000000200000061742B0020
:102DB00041542B004154206E6F7420737570706FF6
:102DC00072742E0D0A00000061742B7665727369AF
:102DD0006F6E000061742B7665723D3F000000004D
:102DE00061742B626F6F747665723D3F0000000066
:102DF0000D0A000061742B75706461746500000039
:102E00005374617274206669726D776172652075A2
:102E10007067726164652E2E2E0D0A0061742B722C
:102E2000756E000053746F7020426F6F74204D6F89
:102E300064650D0A000000004A756D7020666169C6
:102E40006C65642E204E6F206C6567616C2061702C
:102E5000706C69636174696F6E2064657465637416
:102E600065642E0D0A00000061742B726573657431
:102E70000000000061742B626F6F7473746174756D
:102E800073000000426F6F74204D6F64650D0A007F
:102E90003C424F4F54204D4F44453E0D0A00000028
:102EA0000100000003000000050000000100000018
:102EB00001000000060000000A00000020000000E1
:102EC00002000000040000000800000010000000E4
:102ED000400000008000000000010000000200002F
:102EE00000000000000000000000000000000000E2
:102EF00001000000020000000300000004000000C8
:102F0000A0860100400D0300801A060000350C0069
:102F100040420F0080841E0000093D0000127A002C
:102F20000024F40000366E010048E801006CDC0269
:102F30000000000000000000000000000000000091
:102F4000010002000400060008000A000C00100046
:102F50002000400080000001080402040801010173
:102F60000101010307010000002020202020202073
:102F70002020282828282820202020202020202029
:102F80002020202020202020208810101010101039
:102F90001010101010101010100404040404040485
:102FA000040404101010101010104141414141411F
:102FB0000101010101010101010101010101010101
:102FC0000101010110101010101042424242424211
:102FD00002020202020202020202020202020202D1
:102FE0000202020210101010200000000000000079
:102FF00000000000000000000000000000000000D1
:1030000000000000000000000000000000000000C0
:1030100000000000000000000000000000000000B0
:1030200000000000000000000000000000000000A0
:103030000000000000000000000000000000000090
:103040000000000000000000000000000000000080
:103050000000000000000000000000000000000070
:103060000000000000000000000000000000000060
:1030700038D1FF7F010000005D0100080000000062
:1030800039010008000000005D0100080000000098
:104000005A5A5A5A000000005D01000800000000E2
:105000005255492053544D3332574C453543432074
:10501000426F6F746C6F616465722076302E35005C
:1050200000093D0001000000100000000000000029
:1060000000FC0020F18600086D8700086F870008FB
:10601000718700087387000875870008000000007A
:10602000000000000000000000000000778700086A
:1060300079870008000000007B8700087D87000842
:106040004187000841870008418700084187000810
:106050004187000841870008F3870008F987000896
:10606000FF870008058800080B880008A98700083A
:10607000B5870008C1870008CD8700084187000860
:1060800041870008418700084187000841870008D0
:1060900041870008418700081188000841870008EF
:1060A00041870008418700084187000841870008B0
:1060B00041870008418700084187000841870008A0
:1060C000BD880008C988000841870008418700088A
:1060D000D9870008F1870008A588000841870008D3
:1060E000418700085188000891870008418700080F
:1060F0004187000841870008418700084187000860
:1061000041870008418700089D87000841870008F3
:10611000418700084187000841870008418700083F
:10612000418700084187000841870008418700082F
:10613000418700084187000841870008418700081F
:1061400010B5054C237833B9044B13B10448AFF3B1
:1061500000800123237010BDB80C00200000000057
:106160003CE9020808B5034B1BB103490348AFF3F0
:10617000008008BD00000000BC0C00203CE90208C3
:1061800010F8012B11F8013B012A28BF9A42F7D0E1
:10619000D01A7047034613F8012B002AFBD1181AB6
:1061A00001387047000000000000000000000000FF
:1061B00001F0FF01102A2BDB10F0070F08D010F8B8
:1061C000013B013A8B422DD010F0070F42B3F6D1BC
:1061D000F0B441EA012141EA014122F007047FF0D5
:1061E00000070023F0E80256083C85EA010586EA2C
:1061F000010685FA47F5A3FA87F586FA47F6A5FA68
:1062000087F68EB9EED1F0BC01F0FF0102F0070273
:1062100032B110F8013B013A83EA010313B1F8D11E
:106220000020704701387047002D06BF35460338FF
:10623000073815F0010F07D1013015F4807F02BF38
:10624000013015F4C03F0130F0BC0138704700BF89
:1062500081F0004102E000BF83F0004330B54FEA17
:1062600041044FEA430594EA050F08BF90EA020F84
:106270001FBF54EA000C55EA020C7FEA645C7FEA17
:10628000655C00F0E2804FEA5454D4EB5555B8BF3A
:106290006D420CDD2C4480EA020281EA030382EAAB
:1062A000000083EA010180EA020281EA0303362D3D
:1062B00088BF30BD11F0004F4FEA01314FF4801C10
:1062C0004CEA113102D0404261EB410113F0004F22
:1062D0004FEA03334CEA133302D0524263EB4303D9
:1062E00094EA050F00F0A780A4F10104D5F1200E77
:1062F0000DDB02FA0EFC22FA05F2801841F10001D2
:1063000003FA0EF2801843FA05F359410EE0A5F1A5
:1063100020050EF1200E012A03FA0EFC28BF4CF0D6
:10632000020C43FA05F3C01851EBE37101F000458C
:1063300007D54FF0000EDCF1000C7EEB00006EEB99
:106340000101B1F5801F1BD3B1F5001F0CD3490823
:106350005FEA30004FEA3C0C04F101044FEA44527A
:1063600012F5800F80F09A80BCF1004F08BF5FEA01
:10637000500C50F1000041EB045141EA050130BDE1
:106380005FEA4C0C404141EB0101013C28BFB1F5F3
:10639000801FE9D291F0000F04BF01460020B1FA3E
:1063A00081F308BF2033A3F10B03B3F120020CDA11
:1063B0000C3208DD02F1140CC2F10C0201FA0CF0EF
:1063C00021FA02F10CE002F11402D8BFC2F1200C54
:1063D00001FA02F120FA0CFCDCBF41EA0C0190400A
:1063E000E41AA2BF01EB0451294330BD6FEA040453
:1063F0001F3C1CDA0C340EDC04F11404C4F120023E
:1064000020FA04F001FA02F340EA030021FA04F34F
:1064100045EA030130BDC4F10C04C4F1200220FAA6
:1064200002F001FA04F340EA0300294630BD21FAE4
:1064300004F0294630BD94F0000F83F4801306BFAA
:1064400081F480110134013D4EE77FEA645C18BF9E
:106450007FEA655C29D094EA050F08BF90EA020F35
:1064600005D054EA000C04BF1946104630BD91EA2D
:10647000030F1EBF0021002030BD5FEA545C05D130
:106480004000494128BF41F0004130BD14F580046F
:106490003CBF01F5801130BD01F0004545F0FE41E3
:1064A00041F470014FF0000030BD7FEA645C1ABF18
:1064B000194610467FEA655C1CBF0B46024650EA4F
:1064C000013406BF52EA033591EA030F41F400217B
:1064D00030BD00BF90F0000F04BF0021704730B501
:1064E0004FF4806404F132044FF000054FF00001D6
:1064F00050E700BF90F0000F04BF0021704730B597
:106500004FF4806404F1320410F0004548BF40426B
:106510004FF000013EE700BF42004FEAE2014FEAC0
:1065200031014FEA02701FBF12F07F4393F07F4F9B
:1065300081F06051704732F07F4208BF704793F09E
:106540007F4F04BF41F40021704730B54FF46074B1
:1065500001F0004521F000411CE700BF50EA0102B4
:1065600008BF704730B54FF000050AE050EA01025D
:1065700008BF704730B511F0004502D5404261EBCD
:1065800041014FF4806404F132045FEA915C3FF40E
:10659000D8AE4FF003025FEADC0C18BF03325FEAAB
:1065A000DC0C18BF033202EBDC02C2F1200300FA5C
:1065B00003FC20FA02F001FA03FE40EA0E0021FA81
:1065C00002F11444BDE600BF70B54FF0FF0C4CF46F
:1065D000E06C1CEA11541DBF1CEA135594EA0C0F21
:1065E00095EA0C0F00F0DEF82C4481EA030621EA5C
:1065F0004C5123EA4C5350EA013518BF52EA033597
:1066000041F4801143F4801338D0A0FB02CE4FF048
:106610000005E1FB02E506F00042E0FB03E54FF078
:106620000006E1FB03569CF0000F18BF4EF0010E70
:10663000A4F1FF04B6F5007F64F5407404D25FEA6C
:106640004E0E6D4146EB060642EAC62141EA55511F
:106650004FEAC52040EA5E504FEACE2EB4F1FD0C61
:1066600088BFBCF5E06F1ED8BEF1004F08BF5FEADF
:10667000500E50F1000041EB045170BD06F0004691
:1066800046EA010140EA020081EA0301B4EB5C043E
:10669000C2BFD4EB0C0541EA045170BD41F4801136
:1066A0004FF0000E013C00F3AB8014F1360FDEBF5B
:1066B000002001F0004170BDC4F10004203C35DA37
:1066C0000C341BDC04F11404C4F1200500FA05F3BA
:1066D00020FA04F001FA05F240EA020001F000425B
:1066E00021F0004110EBD37021FA04F642EB0601D1
:1066F0005EEA430E08BF20EAD37070BDC4F10C04FB
:10670000C4F1200500FA04F320FA05F001FA04F2BE
:1067100040EA020001F0004110EBD37041F10001AA
:106720005EEA430E08BF20EAD37070BDC4F12005B5
:1067300000FA05F24EEA020E20FA04F301FA05F21D
:1067400043EA020321FA04F001F0004121FA04F2C5
:1067500020EA020000EBD3705EEA430E08BF20EA95
:10676000D37070BD94F0000F0FD101F000464000CF
:1067700041EB010111F4801F08BF013CF7D041EA51
:10678000060195F0000F18BF704703F00046520055
:1067900043EB030313F4801F08BF013DF7D043EA26
:1067A0000603704794EA0C0F0CEA135518BF95EADC
:1067B0000C0F0CD050EA410618BF52EA4306D1D163
:1067C00081EA030101F000414FF0000070BD50EA82
:1067D000410606BF1046194652EA430619D094EA0C
:1067E0000C0F02D150EA013613D195EA0C0F05D1F6
:1067F00052EA03361CBF104619460AD181EA03014A
:1068000001F0004141F0FE4141F470014FF0000001
:1068100070BD41F0FE4141F4780170BD70B54FF09C
:10682000FF0C4CF4E06C1CEA11541DBF1CEA13551C
:1068300094EA0C0F95EA0C0F00F0A7F8A4EB0504FE
:1068400081EA030E52EA03354FEA013100F08880F5
:106850004FEA03334FF0805545EA131343EA1263BE
:106860004FEA022245EA111545EA10654FEA002673
:106870000EF000419D4208BF964244F1FD0404F52C
:10688000407402D25B084FEA3202B61A65EB030588
:106890005B084FEA32024FF480104FF4002CB6EB45
:1068A000020E75EB030E22BFB61A754640EA0C00C5
:1068B0005B084FEA3202B6EB020E75EB030E22BF05
:1068C000B61A754640EA5C005B084FEA3202B6EB46
:1068D000020E75EB030E22BFB61A754640EA9C0005
:1068E0005B084FEA3202B6EB020E75EB030E22BFD5
:1068F000B61A754640EADC0055EA060E18D04FEA93
:10690000051545EA16754FEA06164FEAC30343EA32
:1069100052734FEAC2025FEA1C1CC0D111F4801FFF
:106920000BD141EA00014FF000004FF0004CB6E7F8
:1069300011F4801F04BF01430020B4F1FD0C88BF97
:10694000BCF5E06F3FF6AFAEB5EB030C04BFB6EBA2
:10695000020C5FEA500C50F1000041EB045170BD95
:106960000EF0004E4EEA113114EB5C04C2BFD4EBC2
:106970000C0541EA045170BD41F480114FF0000E46
:10698000013C90E645EA060E8DE60CEA135594EAC2
:106990000C0F08BF95EA0C0F3FF43BAF94EA0C0FC5
:1069A0000AD150EA01347FF434AF95EA0C0F7FF43A
:1069B00025AF104619462CE795EA0C0F06D152EA8E
:1069C00003353FF4FDAE1046194622E750EA410672
:1069D00018BF52EA43067FF4C5AE50EA41047FF483
:1069E0000DAF52EA43057FF4EBAE12E74FF0FF3CE8
:1069F00006E000BF4FF0010C02E000BF4FF0010CB9
:106A00004DF804CD4FEA410C7FEA6C5C4FEA430C31
:106A100018BF7FEA6C5C1BD001B050EA410C0CBF80
:106A200052EA430C91EA030F02BF90EA020F0020E2
:106A3000704710F1000F91EA030F58BF994208BF49
:106A400090422CBFD8176FEAE37040F00100704706
:106A50004FEA410C7FEA6C5C02D150EA013C07D15D
:106A60004FEA430C7FEA6C5CD6D152EA033CD3D0A8
:106A70005DF8040B704700BF8446104662468C46A2
:106A80001946634600E000BF01B5FFF7B7FF0028D5
:106A900048BF10F1000F01BD4DF808EDFFF7F4FFFE
:106AA0000CBF012000205DF808FB00BF4DF808ED89
:106AB000FFF7EAFF34BF012000205DF808FB00BFAC
:106AC0004DF808EDFFF7E0FF94BF012000205DF8CE
:106AD00008FB00BF4DF808EDFFF7CEFF94BF012083
:106AE00000205DF808FB00BF4DF808EDFFF7C4FF7C
:106AF00034BF012000205DF808FB00BF4FEA410CC5
:106B00007FEA6C5C02D150EA013C0AD14FEA430CA7
:106B10007FEA6C5C02D152EA033C02D14FF00000E4
:106B200070474FF0010070474FEA410212F5001222
:106B300015D211D56FF47873B3EB625212D94FEAC4
:106B4000C12343F0004343EA505311F0004F23FAAE
:106B500002F018BF404270474FF00000704750EA03
:106B6000013005D111F0004008BF6FF000407047C0
:106B70004FF00000704700BF4A0011D212F500121A
:106B800011D20DD56FF47873B3EB62520ED44FEA85
:106B9000C12343F0004343EA505323FA02F0704705
:106BA0004FF00000704750EA013002D14FF0FF3043
:106BB00070474FF00000704780F0004002E000BFD7
:106BC00081F0004142001FBF5FEA410392EA030FD8
:106BD0007FEA226C7FEA236C6AD04FEA1262D2EB22
:106BE0001363C1BFD218414048404140B8BF5B4227
:106BF000192B88BF704710F0004F40F4000020F0C0
:106C00007F4018BF404211F0004F41F4000121F0D5
:106C10007F4118BF494292EA030F3FD0A2F101021F
:106C200041FA03FC10EB0C00C3F1200301FA03F15D
:106C300000F0004302D5494260EB4000B0F5000F80
:106C400013D3B0F1807F06D340084FEA310102F13F
:106C50000102FE2A51D2B1F1004F40EBC25008BFF1
:106C600020F0010040EA03007047490040EB0000BB
:106C7000013A28BFB0F5000FEDD2B0FA80FCACF1BC
:106C8000080CB2EB0C0200FA0CF0AABF00EBC250E9
:106C900052421843BCBFD0401843704792F0000FD7
:106CA00081F4000106BF80F400000132013BB5E72A
:106CB0004FEA41037FEA226C18BF7FEA236C21D0A0
:106CC00092EA030F04D092F0000F08BF0846704705
:106CD00090EA010F1CBF0020704712F07F4F04D1D3
:106CE000400028BF40F00040704712F100723CBFE6
:106CF00000F50000704700F0004343F0FE4040F410
:106D0000000070477FEA226216BF08467FEA2363CD
:106D10000146420206BF5FEA412390EA010F40F4B8
:106D2000800070474FF0000304E000BF10F0004304
:106D300048BF40425FEA000C08BF704743F09643EB
:106D400001464FF000001CE050EA010208BF704706
:106D50004FF000030AE000BF50EA010208BF70478D
:106D600011F0004302D5404261EB41015FEA010CA2
:106D700002BF84460146002043F0B64308BFA3F19A
:106D80008053A3F50003BCFA8CF2083AA3EBC2537C
:106D900010DB01FA02FC634400FA02FCC2F120029B
:106DA000BCF1004F20FA02F243EB020008BF20F0D2
:106DB0000100704702F1200201FA02FCC2F1200238
:106DC00050EA4C0021FA02F243EB020008BF20EA2D
:106DD000DC7070474FF0FF0C1CEAD0521EBF1CEA5B
:106DE000D15392EA0C0F93EA0C0F6FD01A4480EA49
:106DF000010C400218BF5FEA41211ED04FF0006332
:106E000043EA501043EA5111A0FB01310CF000405D
:106E1000B1F5000F3EBF490041EAD3715B0040EA83
:106E2000010062F17F02FD2A1DD8B3F1004F40EB53
:106E3000C25008BF20F00100704790F0000F0CF026
:106E4000004C08BF49024CEA502040EA51207F3AEA
:106E5000C2BFD2F1FF0340EAC250704740F40000C5
:106E60004FF00003013A5DDC12F1190FDCBF00F0B6
:106E700000407047C2F10002410021FA02F1C2F164
:106E8000200200FA02FC5FEA310040F1000053EA00
:106E90004C0308BF20EADC70704792F0000F00F04E
:106EA000004C02BF400010F4000F013AF9D040EA54
:106EB0000C0093F0000F01F0004C02BF490011F4E8
:106EC000000F013BF9D041EA0C018FE70CEAD153E6
:106ED00092EA0C0F18BF93EA0C0F0AD030F0004C66
:106EE00018BF31F0004CD8D180EA010000F000401A
:106EF000704790F0000F17BF90F0004F084691F0D8
:106F0000000F91F0004F14D092EA0C0F01D1420211
:106F10000FD193EA0C0F03D14B0218BF084608D1DA
:106F200080EA010000F0004040F0FE4040F4000024
:106F3000704740F0FE4040F4400070474FF0FF0CB7
:106F40001CEAD0521EBF1CEAD15392EA0C0F93EAFE
:106F50000C0F69D0A2EB030280EA010C49024FEA50
:106F6000402037D04FF0805343EA111143EA101309
:106F70000CF000408B4238BF5B0042F17D024FF4C1
:106F8000000C8B4224BF5B1A40EA0C00B3EB510F9C
:106F900024BFA3EB510340EA5C00B3EB910F24BF85
:106FA000A3EB910340EA9C00B3EBD10F24BFA3EB0A
:106FB000D10340EADC001B0118BF5FEA1C1CE0D1D2
:106FC000FD2A3FF650AF8B4240EBC25008BF20F085
:106FD000010070470CF0004C4CEA50207F32C2BFD9
:106FE000D2F1FF0340EAC250704740F400004FF076
:106FF0000003013A37E792F0000F00F0004C02BFA7
:10700000400010F4000F013AF9D040EA0C0093F070
:10701000000F01F0004C02BF490011F4000F013BCA
:10702000F9D041EA0C0195E70CEAD15392EA0C0F32
:1070300008D142027FF47DAF93EA0C0F7FF470AF6A
:10704000084676E793EA0C0F04D14B023FF44CAFAD
:1070500008466EE730F0004C18BF31F0004CCAD142
:1070600030F000427FF45CAF31F000437FF43CAF7E
:107070005FE700BF4FF0FF3C06E000BF4FF0010CA0
:1070800002E000BF4FF0010C4DF804CD4FEA400282
:107090004FEA41037FEA226C18BF7FEA236C11D0CC
:1070A00001B052EA530C18BF90EA010F58BFB2EB7F
:1070B000030088BFC81738BF6FEAE17018BF40F0FF
:1070C000010070477FEA226C02D15FEA402C05D1B3
:1070D0007FEA236CE4D15FEA412CE1D05DF8040B38
:1070E000704700BF844608466146FFE70FB5FFF7CB
:1070F000C9FF002848BF10F1000F0FBD4DF808ED83
:10710000FFF7F4FF0CBF012000205DF808FB00BF73
:107110004DF808EDFFF7EAFF34BF012000205DF8CD
:1071200008FB00BF4DF808EDFFF7E0FF94BF01201A
:1071300000205DF808FB00BF4DF808EDFFF7D2FF17
:1071400094BF012000205DF808FB00BF4DF808ED5A
:10715000FFF7C8FF34BF012000205DF808FB00BF27
:1071600053B94AB9002908BF00281CBF4FF0FF31AE
:107170004FF0FF3001F0F2B8ADF1080C6DE904CE2C
:1071800000F01AF8DDF804E0DDE9022304B07047EE
:10719000430803F05533C01A830803F0333300F07B
:1071A0003330184400EB101000F00F3000EB0020DB
:1071B00000EB0040000E70472DE9F047089E0D4699
:1071C00004468846002B4DD18A42944668D9B2FACB
:1071D00082F252B101FA02F3C2F1200120FA01F168
:1071E0000CFA02FC41EA030894404FEA1C45210CCA
:1071F000B8FBF5FE1FFA8CF705FB1E8341EA03433B
:107200000EFB07F199420BD91CEB03030EF1FF3083
:1072100080F01E81994240F21B81AEF1020E634460
:107220005B1AA4B2B3FBF5F005FB103344EA034448
:1072300000FB07F7A7420AD91CEB040400F1FF3357
:1072400080F00881A74240F2058164440238E41BC3
:1072500040EA0E4000211EB1D4400023C6E900439D
:10726000BDE8F0878B4208D9002E00F0EE800021A7
:10727000C6E900050846BDE8F087B3FA83F10029A6
:107280004AD1AB4202D3824200F2F980841A65EB04
:10729000030301209846002EE2D0C6E90048DFE74C
:1072A00002B9FFDEB2FA82F2002A40F09180A1EB2F
:1072B0000C054FEA1C471FFA8CFE0121B5FBF7F3C2
:1072C00007FB1350250C45EA00450EFB03F0A842CE
:1072D00008D91CEB050503F1FF3802D2A84200F2E1
:1072E000CB8043462D1AA4B2B5FBF7F007FB10552F
:1072F00044EA05440EFB00FEA64508D91CEB040435
:1073000000F1FF3502D2A64500F2BB802846A4EB6F
:107310000E0440EA03409EE7C1F120078B4022FAA9
:1073200007FC4CEA030C20FA07F405FA01F31C43AE
:10733000FD404FEA1C4900FA01F3B5FBF9F8200CB7
:107340001FFA8CFE09FB185540EA054508FB0EF0B4
:10735000A84202FA01F20BD91CEB050508F1FF3A2D
:1073600080F08880A84240F28580A8F10208654438
:107370002D1AA4B2B5FBF9F009FB105544EA0545F6
:1073800000FB0EFEAE4508D91CEB050500F1FF34ED
:107390006CD2AE456AD90238654440EA0840A0FB89
:1073A0000294A5EB0E05A542C846A64656D353D077
:1073B0005EB1B3EB080265EB0E0505FA07F722FA9A
:1073C00001F3CD401F43C6E900750021BDE8F087F9
:1073D000C2F1200320FA03F10CFA02FC25FA03F3B0
:1073E00095400D434FEA1C471FFA8CFEB3FBF7F1A3
:1073F00007FB11302B0C43EA004301FB0EF09842CF
:1074000004FA02F408D91CEB030301F1FF382FD270
:1074100098422DD9023963441B1AADB2B3FBF7F081
:1074200007FB103345EA034500FB0EF3AB4208D9D6
:107430001CEB050500F1FF3816D2AB4214D9023817
:107440006544ED1A40EA014138E73146304607E726
:107450008646E5E61846FAE64B45A9D2B9EB02089E
:1074600064EB0C0E0138A3E74046EAE7204694E7B8
:107470004146D1E7D0467BE7023B654432E7084608
:1074800009E76444023842E703685A004CBF43F0FE
:10749000004323F000431844704700BF2DE9F84330
:1074A00029B34F1E044615463E464FF0000808EB30
:1074B000060101EBD171491004EBC1094846FFF701
:1074C000E3FF0346C80008308F42204409D0AB4296
:1074D00009D8FFF7D9FF0138A8420AD201F1010803
:1074E000E5E7AB4205D9884501D04E1EDFE74FF0F6
:1074F00000094846BDE8F883012807D0022807D0D4
:10750000044B00280CBF1846002070470248704703
:1075100002487047D17B0008D57B0008D97B000862
:1075200030B5234B83B004468D1E3BB301A92846DA
:10753000AFF30080E8B101992A46FFF7AFFF01469B
:10754000B8B1FFF7A1FF4B68A064012B2CD0002B32
:1075500001F1040024DBFFF797FF0023C4E91303C4
:107560000368002B11DBFFF78FFF2061002003B0C1
:1075700030BD00230920236103B030BD0D4B0E49FF
:10758000C91AC91018460191D6E7C3F30360FFF783
:10759000B3FF0028206114BF0020092003B030BDD4
:1075A0000123C4E91303DBE7002323610520DEE7A1
:1075B00000000000D0200308202203080368DA0737
:1075C00010B5044606D49B0700F1480009D500F029
:1075D0005BFC2368590709D51A070ED5DB0613D5BE
:1075E00010BD00F049FC23685907F5D404F1D00020
:1075F00000F052FC23681A07F0D404F5A87000F0DC
:1076000053FC2368DB06EBD404F5E870BDE81040BA
:1076100000F08EBC092070470346006800B1184492
:10762000704700BF704700BF70B504460E46316C0E
:107630002046FFF775FF054688B9326C6261236901
:1076400032462146012098470828F0D0072806D165
:107650002846316CFFF7E6FF301D00F001FC24F0F6
:1076600035FE00BF2DE9F0470D1DD0F80C80D0F895
:107670001890074614460FCDADF5727D0DF10C0C38
:10768000ACE80F000FCDACE80F000FCDACE80F0059
:1076900095E80F0002AE4FF0000E8CE80F00C6F820
:1076A00000E020E0336C7B614FF4F07231467AA841
:1076B00022F0DCF83B697AAA394650469847889B05
:1076C00073642146CDE9006905463B463A460120F0
:1076D000C0470446E0B94FF4F0727AA9304622F070
:1076E000C5F8082D1AD1316C3846FFF719FF093457
:1076F0005FFA84FA05460028D4D0B36B73643A4627
:10770000CDE900693B464AF010010120C04700B1B5
:10771000092528460DF5727DBDE8F087072DF7D1C4
:107720002046316CFFF77EFF03A800F099FB00BFF5
:10773000406C7047F0B5CB6B0B6401F1040C0E4646
:107740000546BCE80F00F9B001AC0FC4BCE80F005F
:107750000FC4BCE80F000FC49CE80F004FF0FF37C8
:1077600084E80F00009706E02B696A46294698478F
:107770000828044608D110992846FFF7D1FE0028B2
:10778000F2D0092079B0F0BD6846FFF717FF062C4C
:10779000F7D131462846FFF747FF00BFC160D96BDC
:1077A00082611964002219465CE700BF70B5C668A3
:1077B00043690B64AEB903690A4604460D460146A7
:1077C00002209847072805D008280FD129462046CF
:1077D000FFF72AFF3046296CFFF724FF281D00F031
:1077E0003FFB0122FFF73EFF24F070FD24F06EFD09
:1077F000C2681AB1CA6B0A64002233E79AE700BF75
:10780000704700BF836801460BB1012018477047DD
:10781000012912D009D873B90F2A0CD800EB8202C3
:1078200018465368009A136070470339012994BFC2
:10783000012002207047022070470846704700BFB1
:1078400000B585B00A46002303A900911946FFF749
:10785000DFFF039805B05DF804FB00BF012912D0DB
:1078600009D873B90F2A0CD800EB8200009A12686D
:107870004260184670470339012994BF0120022055
:107880007047022070470846704700BF10B584B0AB
:10789000002303AC039200940A461946FFF7DEFF6B
:1078A00004B010BD70B5D36B136402F1040C05462F
:1078B0000C46BCE80F00ADF50E7D0DF15C0EAEE898
:1078C0000F00BCE80F00AEE80F00BCE80F00AEE808
:1078D0000F009CE80F004FF0FF368EE80F00169661
:1078E00010E0FFF7D3FF214616A8A847034616AAC3
:1078F0006946082083B9049B9847052806460CD0A2
:10790000092809D026996846FFF70AFE03466A4609
:107910000C2116A8002BE4D0092616A8FFF74EFE6E
:1079200030460DF50E7D70BD2DE9F04FCC6C89B061
:107930001E4654F8043B06940D46174600F0030813
:10794000002E79D01A0C1B0405938DF81D200223FC
:10795000D2B204EB82048DF81C302B6DB8F1020F0B
:1079600008BFAC6B13F001030CD005A9384600F03A
:1079700079FB18B9082009B0BDE8F08F092009B0DB
:10798000BDE8F08FD4F800A0BAF1000FEDD001935C
:1079900000F008030293022E4AD0B4F800A0B4F815
:1079A00002900434AB6C29F0010B0F2138469B4444
:1079B000FFF746FF834539D82AF001039B448345EE
:1079C00094BF002001204FEA490303F002030AF0AC
:1079D000010A43EA0A03012B49D0022B32D0002BC3
:1079E000CCD1B8F1000F02D0002840F0CD80043493
:1079F000D4F800A0BAF1000FCDD105A9384600F0A7
:107A000031FB0028BAD1019B002BB3D00F2138469F
:107A1000FFF716FF0E2102463846FFF737FF3846BC
:107A20006A4A0F21FFF732FF0720A8E70020CAE7C4
:107A3000D4F804900834B5E71B0205930323ADF88E
:107A40001C308AE7236823F0004BB8F1000F45D1C2
:107A500028B1029A002A5CD0BBF1000F74D0002B31
:107A600000DA04340BF1010B04EB8B04C0E7B8F12E
:107A7000000F19D1B0B163682268991C4FEAD27225
:107A80003FF47CAF05F158010133049100F0908080
:107A9000201DFFF7C1FD04AB0146284626F0F0FA91
:107AA00000285BD10834A3E70D213846D5F8209093
:107AB000FFF7C6FE8145F5D1AB6A9C42F2D1204664
:107AC000FFF7E2FC0F2102463846FFF7DFFE38469B
:107AD0002A460021FFF7DAFE072050E70D2138463D
:107AE000D5F82090FFF7ACFE814501D02368B6E7BA
:107AF000AB6A9C42FAD104230022C5E90B23E318A8
:107B0000C5F828B06B632368002B59DB0123019370
:107B1000A8E705F15803CDF80C8004F1040AB0463B
:107B200091461E460EE050460496FFF775FD002272
:107B3000014604AB284609F101090AF1040A26F0BE
:107B40009FFAE0B9D945EED10D213846FFF778FE0E
:107B5000049BAC62C5E90803062010E781460D21AD
:107B60003846FFF76DFEB9F1020F286225D12B468A
:107B7000049A43F82C2F6B62AC620620FFE646465F
:107B80002368DDF80C806AE72046FFF77DFC0434AB
:107B90000246AC632846144626F0D0FA00283FF48B
:107BA000EDAE384622460F21FFF770FE0720E6E6CD
:107BB0000D213846FFF744FE2862049B6B62DBE729
:107BC0000BF1010004EB80007AE700BF7DE80208BA
:107BD0000023A9E60123A7E60223A5E62DE9F04349
:107BE0000646C3B015461C46042900F2BF80DFE8F4
:107BF00001F09E57BD2D0300002C40F0B780102AE5
:107C000000F2B4800368D80600F1F98020AF38464E
:107C100000F098F9B46B394600234FF0010C0CFAD0
:107C200003F22A42204603F1010303D050F8042B4B
:107C30000A600446042B01F10401F0D13846B46314
:107C400000F076F9002043B0BDE8F083032C40F04B
:107C50008D8094B204EB1243102B4FEA124500F2D0
:107C6000858003681F0700F1D28020AF384600F0FE
:107C70003DF9B26B07EBC50154B10B46D01A01EBCD
:107C8000C401E4001D5843F8045B8B42FAD122443E
:107C90003846B26300F008F9002043B0BDE8F08335
:107CA000012C4FEA124895B25CD0052C5ED108EB4E
:107CB0000509B9F1200F59D8B8F10F0F79D9A946A4
:107CC000002D40F08A80B36B6DB320AF4FF00009F8
:107CD00007EBC807043F03EBC50553F8041B47F83F
:107CE000041FAB42F9D1B9F1000F0FD06F464146E6
:107CF000102938BF102107EBC101843903EBC905F6
:107D000053F8040B41F8040FAB42F9D1012C00F0F9
:107D10008680B8F10F0FB56347D9B9F1000F02D0D3
:107D2000684600F0B9F8002043B0BDE8F083ECB934
:107D3000806B23461FFA82FC0124371D04FA03F2EC
:107D400012EA0C0F014604D051F8042B47F8232007
:107D500008460133102BF1D115F40055E3D1B0637F
:107D6000284604E008EB0503102B03D9022043B09A
:107D7000BDE8F083B8F10F0FF8D83368DA0706D5FD
:107D8000304623F0030340F8483B00F079F820AF79
:107D9000384600F075F8B36B002D97D11D460435B9
:107DA000B563384600F068F8BDE720A800F06CF82D
:107DB000B3E7B9F1100F40D9A9F110093368D90719
:107DC00008D523F00103304643F0020340F8483B56
:107DD00000F05EF8B9F1000F32D033685A0720D4B2
:107DE000B8F10F0F25D96F463846C8F1100500F0DD
:107DF00057F8002DB36B7FF77AAF20AF68E723F019
:107E00001003336006F5E87000F09CF8FEE623F0FE
:107E10000803036000F5A87000F068F825E720AFBC
:107E2000BDE7304623F0040340F8D03B00F038F8BB
:107E3000D6E720A800F02CF8D5E74FF00009BDE701
:107E4000B8F10F0F3FF63FAF20AF384600F020F8F3
:107E5000B36B002D7FF43AAF384600F015F862E7B7
:107E600000F1340191E838009C46A6464CF8045DC8
:107E700090E8FF0FE54600BD90EC210B704700BF76
:107E800080EC210B704700BF90EC200B704700BFC7
:107E900080EC200B704700BFD0EC200B704700BF78
:107EA000C0EC200B704700BFF0EC0201F0EC0211B7
:107EB000F0EC0221F0EC0231F0EC0241F0EC025166
:107EC000F0EC0261F0EC0271F0EC0281F0EC029156
:107ED000F0EC02A1F0EC02B1F0EC02C1F0EC02D146
:107EE000F0EC02E1F0EC02F1704700BFE0EC0201BF
:107EF000E0EC0211E0EC0221E0EC0231E0EC0241A6
:107F0000E0EC0251E0EC0261E0EC0271E0EC028195
:107F1000E0EC0291E0EC02A1E0EC02B1E0EC02C185
:107F2000E0EC02D1E0EC02E1E0EC02F1704700BFCE
:107F3000B0FC0181B0FC0191B0FC01A1B0FC01B129
:107F4000704700BFA0FC0181A0FC0191A0FC01A131
:107F5000A0FC01B1704700BFEC4600B52DE9005010
:107F60002DE9FF1F4FF000032DE90C0001A9FFF7D9
:107F7000E1FBDDF840E012B0704700BFEC4600B511
:107F80002DE900502DE9FF1F4FF000032DE90C00F3
:107F900001A9FFF70BFCDDF840E012B0704700BF0D
:107FA000EC4600B52DE900502DE9FF1F4FF000030E
:107FB0002DE90C0001A9FFF71BFCDDF840E012B031
:107FC000704700BFEC4600B52DE900502DE9FF1FBA
:107FD0004FF000032DE90C0001ABFFF7DFFBDDF8EC
:107FE00040E012B0704700BFEC4600B52DE90050EC
:107FF0002DE9FF1F4FF000032DE90C0001AAFFF748
:1080000051FCDDF840E012B0704700BF027A034631
:108010007AB9427AA2B14168013A10B44272086852
:1080200003220C1D1A7202025C60000E10BC1A6062
:1080300070470068013A1A7202021A60000E704717
:10804000B020704700B585B0002303AA00921946FE
:108050000C22FFF7DDFB039805B05DF804FB00BFC1
:10806000F0E700BF2DE9F043054685B00E464FF01E
:1080700000083046FFF7CAFFB028044600F0BA8077
:10808000070620D500F0F003802B4DD0902B36D082
:10809000A02B60D0B02B74D0C02B00F08B8000F0F0
:1080A000F803D02B0BD100F007020132052342F474
:1080B000002201212846FFF791FD0028D9D0092090
:1080C00005B0BDE8F0838300DBB21F1D0DF10C0984
:1080D00000231946CDF800900D222846FFF798FBA3
:1080E000039BCDF8009060064CBFDF1BFF180023F8
:1080F0000D22194628460397FFF7B0FBB9E700F0B9
:108100000D030D2BDBD003AF002300F00F02194647
:1081100000972846FFF77CFB002300970D221946A5
:108120002846FFF79BFBA4E73046FFF76FFF2402CA
:108130002043B0F5004FC2D004010023A2B219467B
:108140002846FFF74BFD0028B9D114F4004F18BFA3
:108150004FF001088DE7C24302F007034FF47F623E
:108160001A41010702F47F624FF0000348BF42F456
:10817000804219462846FFF731FD00283FF479AFC9
:108180009DE7B1283BD0B22800F09380B32841D0BE
:1081900000F0FC03B42B92D000F00702013201235F
:1081A00042F4002219462846FFF718FD00283FF444
:1081B00060AF84E7C6284AD0C72854D000F0F8033F
:1081C000C02B63D0C82868D0C9287FF478AF304668
:1081D000FFF71CFF020300F00F0002F470220130D1
:1081E0000243012105232846FFF7F8FC00283FF44D
:1081F00040AF64E7B8F1000F18D0002060E73046C8
:10820000FFF704FF024600283FF459AF10F0F003D7
:10821000C8D054E73046FFF7F9FE020300F00F0321
:10822000013302F470221A430123BBE703AC434637
:108230000E22414600942846FFF7EAFA009443468E
:108240000F2241462846FFF709FB404638E73046F3
:10825000FFF7DCFE020300F00F03013302F470228B
:108260001A4303239EE73046FFF7D0FE024600285C
:108270003FF425AF10F0F0037FF421AF042128462E
:10828000FFF7ACFC00283FF4F4AE18E700F00F0253
:108290000132032342F4202284E73046FFF7B6FE82
:1082A00000F0F00200F00F031032013343EA023213
:1082B00097E700230DF10C090D221946CDF8009027
:1082C0002846FFF7A5FA3046FFF7A0FE02064FF05A
:1082D00002040CD5039B00F07F00A04018440390DB
:1082E0003046FFF793FE030604F10704F2D4039B24
:1082F000CDF8009000F07F02A24003F501731A440C
:108300000023039219460D222846FFF7A7FAB0E68C
:1083100010B5C26C536884B04FF0030C08321C02D5
:1083200008461B0E01A9019402928DF80CC08DF82D
:108330000D30FFF797FE04B010BD00BF08B5FFF782
:108340008FFE806C08BD00BF08B5FFF789FEC06CCA
:10835000C379023300EB830008BD00BF704700BF44
:1083600010B59AB04822002108A821F0A7FA1822D7
:10837000002102A821F0A2FA0DF066FB4FF0B042F6
:108380000024D2F8903023F01803C2F89030D2F8CD
:10839000003423F4C06343F40073C2F80034D2F80D
:1083A0000034119403F4C0630193019B26230893C6
:1083B00081230B93012310934FF480730C9340237C
:1083C0000D9308A8B023CDE912340CF0FFFE08B1DC
:1083D00000F00CFB4F23022102A8CDE90234CDE9C5
:1083E0000444CDE906440DF093F908B100F0FEFA1B
:1083F0001AB010BD13B50378082B32D8DFE803F0AC
:10840000189FA631AFAF0531B500047920460AF0B8
:10841000FFF8012802D1204604F0B4FF204604F002
:1084200081FA0021204602B0BDE810400AF0F8B8F9
:1084300000200AF0EDF8022821D101200AF0E8F826
:10844000022804D001200BF04DF9002833DC022073
:108450000AF0DEF8022804D002200BF043F90028CD
:108460004ADC02B010BD012201A900200BF020F867
:1084700000200AF0CDF8044638B1012815D00020BC
:108480000BF030F90028EEDCD7E70BF025F920B926
:108490009DF8041004F0B2F9F1E70128EFD19DF83E
:1084A000041020460BF072F8E9E79DF80410002054
:1084B00004F084FEE3E7012201A910460AF0F8FF68
:1084C00001200AF0A5F830B10128BBD19DF80410B5
:1084D00004F074FEB6E701200BF0FEF828B99DF811
:1084E0000410012004F08AF9ACE70128AAD19DF814
:1084F00004100BF04BF8A5E7012201A902200AF0B5
:10850000D7FF02200AF084F838B10128A4D19DF8E1
:108510000410022004F052FE9EE702200BF0DCF86B
:1085200028B99DF80410022004F068F994E70128A6
:1085300092D19DF8041002200BF028F88CE712F07D
:1085400027FD02B0BDE8104002F034BD0A4B1B68A5
:10855000002B86D0406802B0BDE810401847406844
:1085600002B0BDE810400BF055B9406802B0BDE85C
:1085700010400AF01BBE00BFF421002030B52E4B86
:108580002E4A9A6085B00BF0D5F9FFF7E9FE4FF05F
:10859000B0430B209A6C42F004029A649A6C02F089
:1085A00004020392039A9A6C42F001029A649B6C53
:1085B000002203F0010311460293029B0DF0B8F96B
:1085C0000B200DF0E7F90BF019F909F0F5FF0AF0AF
:1085D0008FF8002401460546234603220120CDE9F9
:1085E00000440AF09FFE2346032229460220CDE9DB
:1085F00000440AF097FE01F00FFB02F003FDE5B224
:1086000028460AF005F810B9284604F08BF9013421
:10861000032CF4D10024E0B209F0FAFF012802D1C2
:10862000204604F08BFE0134032CF4D105B0BDE8E4
:1086300030400BF0CBB800BF00ED00E00060000858
:10864000F7B5FFF79BFF224E224C04F0C3F9224BF3
:10865000341B1427474300251C44BD4216D31EF08B
:1086600075FC1E480AF0E8FE01F09BFB012822D0B1
:10867000022822D010B91A480AF0DEFE194C0BF07D
:10868000B3F82378DBB91EF063FCF8E701AA0421F4
:1086900060190AF001FD01A93246042312F801CB4A
:1086A00011F8010B844518BF02F8010C013BF5D10C
:1086B00004350436D1E70C48DEE70C48DCE709F066
:1086C000EFFF0028DBD000200AF0EAFDD7E700BF6B
:1086D0002401002000000020382203088AEB020851
:1086E0009EEB0208D40C0020AAEB0208B5EB0208AE
:1086F0000D4885461EF0AEFD0C480D490D4A00237D
:1087000002E0D458C4500433C4188C42F9D30A4A46
:108710000A4C002301E013600432A242FBD321F093
:1087200051F8FFF78DFFFEE700FC0020000000205D
:10873000B80C002038220308B80C0020686F002015
:10874000FEE700000368074A934206D1DA69D206C1
:1087500006D510221A6200F063BB034A9342F5D09B
:10876000704700BF00800040003801407047FEE7BE
:10877000FEE7FEE7FEE770477047000008B50BF024
:10878000EFF8024A13780133137008BD040000208B
:10879000014811F051B800BFD80C002001480EF07C
:1087A0008ABD00BF1C6A002001480DF01DBB00BF40
:1087B0001811002001480DF017BB00BF281400203D
:1087C00001480DF011BB00BF8814002001480DF0D6
:1087D0000BBB00BF7811002010B5044C20460BF0F5
:1087E000F3FD2046BDE81040FFF7ACBF6812002043
:1087F000704701200DF08EBC02200DF08BBC0420D0
:108800000DF088BC08200DF085BC10200DF082BC56
:108810000E4BDA68920602D520200DF07BBCDA6898
:10882000500601D54020F8E7DA68110601D580200E
:10883000F3E7DA68D20502D54FF48070EDE7DB6824
:108840009B0502D54FF40070E7E770470008005819
:10885000134BDA68510503D54FF480600DF05ABC14
:10886000DA68120502D54FF40060F7E7DA68D00441
:1088700002D54FF48050F1E7DA68910402D54FF445
:108880000050EBE7DA68520402D54FF48040E5E788
:10889000DB681B0402D54FF40040DFE7704700BFE0
:1088A0000008005810B5044C20460BF08DFD204602
:1088B000BDE81040FFF746BFD811002001480DF079
:1088C000D1BD00BFEC14002001480EF057BA00BF24
:1088D000EC14002000B591B02C22002105A820F056
:1088E000EDFF1E481E4B03601F2383604FF0804244
:1088F0000023C0E90433C0E9072383614FF4807388
:10890000436211F017F808B100F070F8134811F045
:108910006FF908B100F06AF84FF07C5300220B9316
:108920000E480C924FF4807305A906920A920F9399
:1089300011F05CF808B100F059F8094B094A9B683E
:108940000648DB4313606946002211F005F908B1BF
:1089500000F04CF8002011B05DF804FBD80C0020AA
:1089600000280040100D0020024B98680021C043F1
:10897000704700BF00280040024B98680021C043A8
:10898000704700BF0028004070477047BFF34F8F0B
:108990000549064BCA6802F4E0621343CB60BFF39B
:1089A0004F8F00BFFDE700BF00ED00E00400FA05B7
:1089B0004FF0B04382B09A6C02439A649B6C1840AB
:1089C0000190019B02B0704710B5064C0649802209
:1089D00020460CF0C3F92268136843F010031360BB
:1089E00010BD00BFD8110020F812002008B5FFF715
:1089F000CDFF0000012810B50BD1094C0949802298
:108A000020460CF0ABF92268136843F010031360A2
